:020000040000FA
:100000000C94FE030C9426040C9426040C942604F1
:100010000C9426040C9426040C9426040C94361597
:100020000C9426040C9426040C9426040C942604A8
:100030000C9426040C9426040C9426040C94260498
:100040000C94EC140C9426040C9426040C942604B2
:100050000C9426040C9426040C9426040C94260478
:100060000C94B8150C94260400000000003E5B4F71
:100070005B3E3E6B4F6B3E1C3E7C3E1C183C7E3C08
:10008000181C577D571C1C5E7F5E1C00183C180016
:10009000FFE7C3E7FF0018241800FFE7DBE7FF30A6
:1000A000483A060E2629792926407F050507407F14
:1000B00005253F5A3CE73C5A7F3E1C1C08081C1C87
:1000C0003E7F14227F22145F5F005F5F06097F017D
:1000D0007F006689956A606060606094A2FFA29468
:1000E00008047E040810207E201008082A1C080836
:1000F0001C2A08081E101010100C1E0C1E0C303884
:100100003E3830060E3E0E06000000000000005F84
:1001100000000007000700147F147F14242A7F2AA0
:100120001223130864623649562050000807030062
:10013000001C2241000041221C002A1C7F1C2A08AE
:10014000083E080800807030000808080808000011
:1001500060600020100804023E5149453E00427F85
:10016000400072494949462141494D331814127FD4
:100170001027454545393C4A494931412111090774
:100180003649494936464949291E000014000000F5
:1001900040340000000814224114141414140041C7
:1001A00022140802015909063E415D594E7C121184
:1001B000127C7F494949363E414141227F414141BC
:1001C0003E7F494949417F090909013E4141517337
:1001D0007F0808087F00417F41002040413F017FA8
:1001E000081422417F404040407F021C027F7F0470
:1001F00008107F3E4141413E7F090909063E4151B9
:10020000215E7F09192946264949493203017F01A8
:10021000033F4040403F1F2040201F3F4038403FA9
:10022000631408146303047804036159494D4300BF
:100230007F4141410204081020004141417F0402F6
:10024000010204404040404000030708002054548D
:1002500078407F284444383844444428384444286B
:100260007F385454541800087E090218A4A49C78BE
:100270007F0804047800447D40002040403D007F1A
:100280001028440000417F40007C047804787C08FA
:100290000404783844444438FC18242418182424CE
:1002A00018FC7C08040408485454542404043F44B3
:1002B000243C4040207C1C2040201C3C4030403CE2
:1002C00044281028444C9090907C4464544C440042
:1002D00008364100000077000000413608000201A6
:1002E0000204023C2623263C1EA1A161123A404092
:1002F000207A38545455592155557941225454780F
:1003000042215554784020545579400C1E527212A7
:100310003955555559395454545939555454580030
:1003200000457C410002457D420001457C407D1234
:1003300011127DF0282528F07C5455450020545496
:100340007C547C0A097F4932494949323A44444441
:100350003A324A4848303A4141217A3A424020787C
:10036000009DA0A07D3D4242423D3D4040403D3C7D
:1003700024FF2424487E4943662B2FFC2F2BFF09A2
:1003800029F620C0887E0903205454794100004496
:100390007D413048484A32384040227A007A0A0A81
:1003A000727D0D19317D2629292F282629292926F4
:1003B00030484D4020380808080808080808382F39
:1003C00010C8ACBA2F102834FA00007B00000814C3
:1003D0002A142222142A14085500550055AA55AA99
:1003E00055AAFF55FF55FF000000FF00101010FF39
:1003F00000141414FF001010FF00FF1010F010F094
:10040000141414FC001414F700FF0000FF00FF1484
:1004100014F404FC141417101F10101F101F1414D0
:10042000141F00101010F0000000001F101010101A
:100430001F10101010F010000000FF10101010100E
:1004400010101010FF10000000FF140000FF00FF4C
:1004500000001F10170000FC04F4141417101714E8
:1004600014F404F40000FF00F7141414141414140A
:10047000F700F7141414171410101F101F1414147D
:10048000F4141010F010F000001F101F0000001FE7
:1004900014000000FC140000F010F01010FF10FF1A
:1004A000141414FF141010101F00000000F010FFAF
:1004B000FFFFFFFFF0F0F0F0F0FFFFFF0000000093
:1004C00000FFFF0F0F0F0F0F3844443844FC4A4A17
:1004D0004A347E02020606027E027E0263554941CC
:1004E000633844443C04407E201E2006027E020203
:1004F00099A5E7A5991C2A492A1C4C7201724C3017
:100500004A4D4D303048784830BC625A463D3E49ED
:100510004949007E0101017E2A2A2A2A2A44445F91
:10052000444440514A444040444A51400000FF0185
:1005300003E080FF000008086B6B08361236243693
:10054000060F090F060000181800000010100030F8
:1005500040FF0101001F01011E00191D1712003C80
:100560003C3C3C0000000000020000600000000075
:1005700000000000000000000000E000000000009B
:10058000000000000000000001E00000000000008A
:100590000000000000000001F0000000000000006A
:1005A00000000000000003F0000000000000000058
:1005B000000000000007F000000000000000000044
:1005C0000000000007F8000000000000000000002C
:1005D0000000000FF800000003C0007E000001E0F2
:1005E000007F0FF800000003C000FE000001E000E3
:1005F000FFEFF800000003C000FE000001E000FF74
:10060000FFF800000003C000F00000000F007FFEB4
:100610007FC0000003C000F00000000F003FFE7F1D
:10062000F83FF1FBCFFCFEF3BC3DEFE01FFE7FFF88
:100630007FFBFFDFFEFEFFBC3DEFE01FC6FFFF7F3D
:10064000FBFFDFFEFEFFBC3DEFE00FE3C7FE787B64
:10065000C3DE1EF0FFBC3DEF0007FF87FC787BC3C5
:10066000DE1EF0F83C3DEF0001FFFFF0007BC3C051
:100670001EF0F03C3DEF0001F37FE03FFBC3CFFEF7
:10068000F0F03C3DEF0003E33F807FFBC3DFFEF073
:10069000F03C3DEF0007E73C00787BC3DE1EF0F046
:1006A0003C3DEF0007FFBE00787BC3DE1EF0F03C50
:1006B0003DEF0007FFFE00787BC3DE1EF0F03C3DFF
:1006C000EF000FFFFE007FFBFFDFFEF0F03FFDEFCE
:1006D000E00FFFFF007FFBFFDFFEF0F03FFDEFE0EC
:1006E0000FF9FF003E79F9CF9EF0F01F3DE7E01FC4
:1006F000F1FF0000000000000000000000001F806B
:10070000FF007FFFFFFFFFFFFFFFFFFFE01C007FF9
:10071000007FFFFFFFFEB46D888D18E000001F0012
:100720007FFFFFFFFE95AD7DB577E000000F007FF6
:10073000FFFFFFFEA5AD9D8D19E0000006007FFFC5
:10074000FFFFFEB5ADEDB57EE0594F5520574F4E3A
:1007500021005052455353204A4F59535449434B5B
:10076000205357495443480047414D45204F564573
:100770005221004D41580053434F52453A200050FA
:10078000524553532042544E20544F20535441520B
:10079000540041535452414C2041544B000000003E
:1007A00000240027002A0000000000250028002B5C
:1007B00000000000002300260029000404040404B3
:1007C00004040402020202020203030303030301FE
:1007D00002040810204080010204081020010204D5
:1007E00008102000000008000201000003040700B8
:1007F0000000000000000000D716832011241FBE57
:10080000CFEFD8E0DEBFCDBF11E0A0E0B1E0E2EC79
:10081000F5E402C005900D92AC3BB107D9F723E097
:10082000ACEBB1E001C01D92AB36B207E1F713E0CB
:10083000CDEFD3E004C02197FE010E949D21CC3F63
:10084000D107C9F70E9433170C94D4220C940000EE
:10085000FC0120812EBD0DB407FEFDCF2EB5FC019D
:1008600020830895833081F028F4813099F082301C
:10087000A9F008958730A9F08830C9F08430B1F428
:10088000809180008F7D03C0809180008F7780935E
:100890008000089584B58F7784BD089584B58F7DD9
:1008A000FBCF8091B0008F778093B0000895809146
:1008B000B0008F7DF9CFCF93DF93282F30E0F9017F
:1008C000ED51F84F8491F901E153F84FD491F901BA
:1008D000E554F84FC491CC23A1F081110E94320459
:1008E000EC2FF0E0EE0FFF1FEF54F84FA591B491FD
:1008F000EC91ED2381E090E009F480E0DF91CF916D
:10090000089580E090E0FACF1F93CF93DF93282FD4
:1009100030E0F901ED51F84F8491F901E153F84FBE
:10092000D491F901E554F84FC491CC23A9F0162FC6
:1009300081110E943204EC2FF0E0EE0FFF1FE95509
:10094000F84FA591B4918FB7F894EC91111108C0AC
:10095000D095DE23DC938FBFDF91CF911F91089557
:10096000DE2BF8CFCF93DF9390E0FC01E153F84FFB
:1009700024918554984FFC0184918823C9F090E01C
:10098000880F991FFC01E356F84FA591B491FC0123
:10099000E955F84FC591D49161110DC09FB7F894F6
:1009A0008C91209582238C938881282328839FBF54
:1009B000DF91CF910895623051F49FB7F8943C9144
:1009C000822F809583238C93E8812E2BEFCF8FB7D6
:1009D000F894EC912E2B2C938FBFEACF82309105A7
:1009E00038F0880F991F880F991F05970197F1F725
:1009F00008959F92AF92BF92CF92DF92EF92FF92B3
:100A00000F931F93CF93DF93EC015B01888599854A
:100A100011E0892B09F010E8F501E0808E2D81238B
:100A2000992493948111912C2C813D814E815F8179
:100A300060E271EA87E090E00E945D21022FF12CD4
:100A4000C22ED12C002319F0C6010E94EE048A8523
:100A5000982F977F09F04FC08D858F3F89F09E2D8D
:100A6000912381E009F480E0891551F0EF85F88940
:100A70008F899923D1F19081892B80839924939434
:100A8000E989FA898081998D892B8083002319F067
:100A9000C6010E94EE048E858F3F39F0EB89FC89F8
:100AA0008081988D892309F0F12AE989FA8990815A
:100AB000898D80958923808388859985892B09F084
:100AC00073C0110F1111BECF8E858F3F11F0F5014C
:100AD000F082DF91CF911F910F91FF90EF90DF9007
:100AE000CF90BF90AF909F9008959081809589237B
:100AF0008083912CC5CF8C30A1F58D858F3F49F037
:100B0000EF85F8898F899E2D912339F19081892B6A
:100B10008083E989FA899081898D809589238083F2
:100B2000002319F0C6010E94EE04E989FA89808148
:100B3000998D892B8083002319F0C6010E94EE0451
:100B40008E858F3F09F4B8CFEB89FC898081988D21
:100B5000892309F4B1CFF12AAFCF90818095892301
:100B6000D7CFE989FA898081998D892B80830023E9
:100B700019F0C6010E94EE048D858F3F49F0EF8584
:100B8000F8898F899E2D912359F09081892B80833C
:100B9000E989FA899081898D809589238083D0CFD6
:100BA000908180958923F3CF16958CCFAF92BF9219
:100BB000CF92DF92EF92FF920F931F93CF93DF9329
:100BC0001F92CDB7DEB78C015B016A01DC018D910C
:100BD0009C911197892B39F01296ED91FC9190819F
:100BE00081819CBD8DBDF80183858F3F19F060E048
:100BF0000E9484047501CA0CDB1CCE14DF04A9F02A
:100C0000D7018D917D018983F80180819181892BA4
:100C100029F0CE0101960E942804EFCFBE016F5F3C
:100C20007F4FC8010E94F904E8CFD8011B968C9130
:100C30008F3F19F061E00E94840481E00F90DF9102
:100C4000CF911F910F91FF90EF90DF90CF90BF90C9
:100C5000AF9008953FB7F8948091CC029091CD0267
:100C6000A091CE02B091CF0226B5A89B05C02F3F20
:100C700019F00196A11DB11D3FBFBA2FA92F982FC2
:100C80008827BC01CD01620F711D811D911D42E0BD
:100C9000660F771F881F991F4A95D1F708958F9285
:100CA0009F92AF92BF92CF92DF92EF92FF924B0151
:100CB0005C010E942A066B017C010E942A066C19C5
:100CC0007D098E099F09683E734081059105A8F34F
:100CD00021E0821A9108A108B10888EEC80E83E0CD
:100CE000D81EE11CF11C81149104A104B10429F760
:100CF000FF90EF90DF90CF90BF90AF909F908F903C
:100D000008952FB7F8946091C8027091C90280913C
:100D1000CA029091CB022FBF0895089508950895B7
:100D2000AF92BF92CF92DF92EF92FF920F931F93F9
:100D3000CF93DF936C017B018B01040F151FEB0137
:100D40005E01AE18BF08C017D10759F06991D601EE
:100D5000ED91FC910190F081E02DC6010995892B60
:100D600079F7C501DF91CF911F910F91FF90EF901F
:100D7000DF90CF90BF90AF9008959B01AC0160E0F1
:100D800074E284EF90E00E945D21BA01A901405114
:100D9000510961097109DB01CA01B695A7959795BB
:100DA0008795813C2FE39207A105B105D0F58F3FD0
:100DB0009105A105B10509F030F41092B9008093B6
:100DC000B80081E008958D3F23E09207A105B105A9
:100DD00068F4DB01CA0143E0B695A795979587951E
:100DE0004A95D1F721E02093B900E9CF813F9F4098
:100DF000A105B10558F4DB01CA0135E0B695A79508
:100E0000979587953A95D1F722E0EDCFDB01CA019E
:100E100027E0B695A795979587952A95D1F723E072
:100E2000E2CF80E00895FF920F931F93CF93DF935B
:100E3000FC0177FD72C080859185681779070CF0F9
:100E40006CC057FD6AC082859385481759070CF01E
:100E500064C08689823009F466C0833009F474C0A6
:100E6000813041F484819581841B950BAB01BC01D9
:100E70006150710981A592A5681779070CF4CB011F
:100E800092A781A783A594A5481759070CF4CA0116
:100E900094A783A785A596A5861797070CF4CB0181
:100EA00096A785A787A590A9841795070CF4CA0172
:100EB00090AB87A787A9813051F42130310509F41F
:100EC0004CC008F470C02230310509F491C087A9E4
:100ED000843019F5A481B5814A9FC0014B9F900DC4
:100EE0005A9F900D112497FD019695958795AB011A
:100EF00077FF02C04F5F5F4F55954795840F951F51
:100F000007A0F0A5E02DE80FF91F908160FD95C0C6
:100F10009F702295207F922B9083DF91CF911F911C
:100F20000F91FF900895848195818C01061B170B0A
:100F3000B8016150710986819781DC01A41BB50B52
:100F4000AD014150510996CF86819781861B970B41
:100F5000BA01AC01415051098DCFCA0157FD079626
:100F6000C3E095958795CA95E1F7C481D5818C9F9B
:100F7000D0018D9FB00D9C9FB00D1124CD01860F27
:100F8000971FA7A1B0A5A80FB91FEA01C770DD2759
:100F900081E090E08C0101C0000FCA95EAF78C91C6
:100FA000802B8C9394CFCA0157FD0796B3E095959B
:100FB0008795BA95E1F7C481D5818C9FD0018D9F2B
:100FC000B00D9C9FB00D1124CD01860F971FA7A1D6
:100FD000B0A5A80FB91FEA01C770DD2781E090E036
:100FE00001C0880FCA95EAF780959C918923D9CFD3
:100FF000CA0157FD0796A3E095958795AA95E1F755
:10100000C481D5818C9FD0018D9FB00D9C9FB00D68
:101010001124CD01860F971FA7A1B0A5A80FB91F56
:10102000EA01C770DD2781E090E08C0101C0000F6C
:10103000CA95EAF78C918027B4CF907F2F70292B27
:1010400020836BCF0895FC016370668B848195814A
:1010500026813781613039F0633029F091878087AC
:101060003387228708953187208793878287089561
:101070002F923F924F925F926F927F928F929F92A8
:10108000AF92BF92CF92DF92EF92FF920F931F9396
:10109000CF93DF93CDB7DEB76A970FB6F894DEBF74
:1010A0000FBECDBF9A8F898F7A8369834A01D22E72
:1010B00018870F833701BC2CDC0159962D913C9188
:1010C0005A972115310509F015C118968D919C91FB
:1010D0001997681779070CF0D7C11A968D919C91D2
:1010E000481759070CF0D0C14C2C512CB6E0CB9EC0
:1010F000600D711D11247C876B87161617060CF086
:10110000C3C1EA2DF0E0FA87E98793E0EE0FFF1FF5
:101110009A95E1F7F88BEF87CF01840F951F18168A
:1011200019060CF0B1C1A98DBA8D58968C91811118
:1011300004C0BFEABD1508F4D394A98DBA8DED9112
:10114000FC9111970284F385E02DCD010995B5E05E
:10115000DB9EC0011124E981FA81FC83EB83312CF1
:10116000212C9C0128593F4F388F2F8B4A2D50E05E
:101170005E8B4D8BEF89F88DE20DF31D44919E82BD
:101180008D82D12CC12C69817A81620D731D7A8B7D
:10119000698B842F90E09C8B8B8BE98DFA8DA081DD
:1011A000B18140FF82C0F1E0BF126FC0AF126DC0CD
:1011B0001C96ED91FC912F813885A4014C0D5D1D8D
:1011C00069897A89898D9A8D0995EB89FC89F595CC
:1011D000E7954E2F5FEFC51AD50A6D817E818D8907
:1011E0009E89680F791F7E836D8398E0C916D104AC
:1011F00081F6AFEF2A1A3A0AEB81FC81E40DF51D66
:10120000FC83EB83F5E02F16310409F0B3CF2F8177
:10121000388526153705B9F0A98DBA8DED91FC9169
:10122000B1E0BB1257C0AB1255C069817A816B5FC8
:101230007F4F0088F189E02D830128E030E0A40190
:10124000898D9A8D0995A98DBA8DED91FC91119793
:101250000688F789E02DCD016A960FB6F894DEBFB7
:101260000FBECDBFDF91CF911F910F91FF90EF90F7
:10127000DF90CF90BF90AF909F908F907F906F90B6
:101280005F904F903F902F9009941E96ED91FC91A6
:10129000EF80F88409851A8592014D815E816B810A
:1012A0007C81898D9A8D099590CF2F81388526155F
:1012B000370509F48ACF31E0B31207C0A31205C085
:1012C0001C96ED91FC91930178CF1E96ED91FC91C7
:1012D0007301E0CF6B857C85641975090684F785F9
:1012E000E02D73010F8518899201A401898D9A8DD3
:1012F0000995A9CFF901349694913297459154916B
:10130000D91AB7E0DB9E400D511D1124F90125913A
:1013100034913C8B2B8BFA0125903490FA01329654
:10132000749031963491398B329664903196449012
:1013300041E04C1518F04A1508F07FC0662D062CC8
:10134000000C770B7C836B83842D042C000C990B91
:101350009E838D83A98DBA8DED91FC9111970284A6
:10136000F385E02DCD010995512CD12CC12CEA2D0E
:10137000F0E0FA87E9872B2D30E03C872B87A4012A
:10138000440D511D47FC5A95588F4F8B69817A81C6
:10139000660D711D67FC7A957E876D877989C71602
:1013A00008F051CF2C2D30E04D815E81420F531F4C
:1013B000A985BA854A9FC0014B9F900D5A9F900DF9
:1013C0001124FC01E80DF91DF88BEF87852D612CA8
:1013D0004F89588D420F531F5E8B4D8B671408F059
:1013E00050C044244394480E877041F4C1010196D3
:1013F000EB89FC89E20DF31DD4901C01D7FE19C0C6
:10140000A98DBA8DED91FC91662D70E0B1E0BB1213
:1014100019C0AB1217C02D853E85620F731F04845F
:10142000F585E02D2F8138854D895E89898D9A8DCE
:101430000995DD0C6394842DD1CF1E821D821C8200
:101440001B8288CF4B815C81640F751FAB85BC8587
:101450006A9FC0016B9F900D7A9F900D1124698146
:101460007A81680F791F0684F785E02DEF80F88474
:1014700009851A859D014F855889898D9A8D099511
:10148000D8CF570CC3948ACF6A960FB6F894DEBFB4
:101490000FBECDBFDF91CF911F910F91FF90EF90C5
:1014A000DF90CF90BF90AF909F908F907F906F9084
:1014B0005F904F903F902F9008958F929F92AF92A0
:1014C000CF92EF92FF920F931F93CF93DF93EC0194
:1014D000262F898D9A8D009709F051C06A30D1F47A
:1014E0001D861C868D8948E0849F900111248E857D
:1014F0009F85820F931F9F878E8781E090E0DF9109
:10150000CF911F910F91FF90EF90CF90AF909F9050
:101510008F9008956D3089F3CC88AD888F898823AA
:10152000C1F08C859D8536E0C39E800D911D1124F0
:10153000488559854817590764F44E855F851D868F
:101540001C8638E0A39EC0011124840F951F9F873D
:101550008E87EA88FB88088919894E855F856C85A6
:101560007D85CE010E9438082C898C859D8546E0BA
:10157000249F800D911D11249D878C87BECF6A30DA
:1015800069F41D861C86FC013896E4912D898E85B0
:101590009F85E29F800D911D1124ADCF6D3009F420
:1015A000ACCFFC0134963491631708F4A6CF329681
:1015B000E491E61708F4A1CFFC013296859094904F
:1015C000462F431B342F47E0349F800C911C11247D
:1015D000F401329634913196E4913323A9F1EE234C
:1015E00099F1CC88F4013596E491AD884F89442374
:1015F00001F10E2E000CFF0BE30FF11DCE9EA0019A
:10160000CF9E500D11246C857D85460F571F688530
:101610007985641775076CF44E855F851D861C8679
:10162000FC013896E491AE9E400D511D11245F8758
:101630004E87EA88FB88088919894E855F856C8505
:101640007D85CE010E943808F4013496E4912C89FE
:101650008C859D85E29F800D911D11248DCF0F9368
:101660001F93CF93DF938C01D0E0C0E0F801EC0F23
:10167000FD1F6491662341F08CE293E00E945D0AB5
:10168000892B11F02196F2CFCE01DF91CF911F91DE
:101690000F9108956F927F928F929F92AF92BF9217
:1016A000CF92DF92EF92FF920F931F93CF93DF932E
:1016B000EC016B015A0139014801E881F98102848A
:1016C000F385E02D0995E881F9810288F389E02D01
:1016D00087019301A501B601CE010995A501480D29
:1016E000591D41505109E881F9810288F389E02DA3
:1016F0009301B601CE010995E881F9810088F1894D
:10170000E02D9401A501B601CE010995C60CD71CA8
:10171000B60161507109E881F9810088F189E02DF5
:101720009401A501CE010995E881F9810688F78920
:10173000E02DCE01DF91CF911F910F91FF90EF909F
:10174000DF90CF90BF90AF909F908F907F906F90E1
:1017500009946F927F928F929F92AF92BF92CF9295
:10176000DF92EF92FF920F931F93CF93DF935C0171
:10177000EB016A01490138018701DC01ED91FC911F
:101780006217730719F5641675062CF0962D872DD0
:101790003A01C92ED82E9601261937092F5F3F4FDF
:1017A000048CF58DE02DA301BE01C5010995DF91E3
:1017B000CF911F910F91FF90EF90DF90CF90BF904E
:1017C000AF909F908F907F906F900895461557052A
:1017D00091F42617370724F0892D4B01C22FD82FFB
:1017E0009E01281939092F5F3F4F068CF78DE02D98
:1017F000A601B401DACF0284F385E02D0995D50165
:10180000ED91FC910488F589E02D83019401A601F6
:10181000BE01C5010995D501ED91FC910688F789B6
:10182000E02DC501DF91CF911F910F91FF90EF90B7
:10183000DF90CF90BF90AF909F908F907F906F90F0
:101840000994EF92FF920F931F93DC011A960D916A
:101850001C911B9718962D913C911997ED91FC9135
:1018600000A0F1A1E02D7B0150E040E070E060E0DD
:1018700009951F910F91FF90EF9008954F925F92FD
:101880006F927F928F929F92AF92BF92CF92DF9290
:10189000EF92FF920F931F93CF93DF936C012B0175
:1018A0005A0139014801DC01ED91FC910284F38574
:1018B000E02D0995E201640C751CD601ED91FC91B7
:1018C000C615D7055CF40088F189E02D87019401E5
:1018D000A501BE01C60109952196EFCF0688F789BB
:1018E000E02DC601DF91CF911F910F91FF90EF90F6
:1018F000DF90CF90BF90AF909F908F907F906F9030
:101900005F904F9009948F929F92AF92BF92CF9227
:10191000DF92EF92FF920F931F93CF93DF93EC012F
:101920005B014A016901E881F9810284F385E02DB8
:10193000099595012C0D3D1D21503109E881F98152
:101940000488F589E02D78018401A401B501CE0158
:101950000995E881F9810688F789E02DCE01DF91AC
:10196000CF911F910F91FF90EF90DF90CF90BF909C
:10197000AF909F908F9009948F929F92AF92BF9259
:10198000CF92DF92EF92FF920F931F93CF93DF934B
:10199000EC015B014A0169017801E881F981028467
:1019A000F385E02D0995C80CD91C86010150110959
:1019B000E881F9810488F589E02D9501A401B5013C
:1019C000CE010995E881F9810688F789E02DCE01DD
:1019D000DF91CF911F910F91FF90EF90DF90CF900B
:1019E000BF90AF909F908F900994EF92FF920F93CA
:1019F0001F93DC01ED91FC9100A0F1A1E02D099570
:101A00001F910F91FF90EF9008950F931F93DC01AA
:101A1000ED91FC91068CF78DE02D09951F910F91AA
:101A200008950F931F93DC01ED91FC91048CF58DCB
:101A3000E02D09951F910F910895DC01ED91FC9126
:101A40000084F185E02D09942F923F924F925F928E
:101A50006F927F928F929F92AF92BF92CF92DF92BE
:101A6000EF92FF920F931F93CF93DF9300D000D09C
:101A700000D0CDB7DEB73C016A013E832D83FC82E6
:101A8000EB825801A41AB50AB7FE03C0B194A19421
:101A9000B1088D809E80861A970A97FE03C09194A4
:101AA000819491088A149B045CF0902F812F0D8102
:101AB0001E819D838E839C2D8D2D6B01692F782F28
:101AC0000C151D055CF09D818E817E836D83692FD1
:101AD000782F902F812F8601C92ED82E1601201A1B
:101AE000310A2B012D813E81421A530A57FE03C051
:101AF000519441945108710137FE03C03FEFE31A3E
:101B0000F30AF594E7948D819E81861797075CF51B
:101B1000A1E0B0E0BA83A983C016D1064CF1D3018D
:101B2000ED91FC910484F585E02D2B813C81A80189
:101B30006D817E818A149B041CF04D815E81B80109
:101B4000C3010995E418F508F7FE0AC02D813E810E
:101B500089819A81280F391F3E832D83E20CF31C63
:101B60000F5F1F4FD9CF2FEF3FEF3A832983D4CF99
:101B700026960FB6F894DEBF0FBECDBFDF91CF9192
:101B80001F910F91FF90EF90DF90CF90BF90AF909B
:101B90009F908F907F906F905F904F903F902F908D
:101BA0000895089520913602260F3327331F2132DE
:101BB0003105ECF42091F602FC0190E080E0243045
:101BC00069F082E00895A09136022191AC014A5E4D
:101BD0005D4FA40FB52FB11D2C930196861798F376
:101BE00080913602680F6093360280E0089581E0AC
:101BF00008951092F60281E08093F5021092D002CF
:101C000061E082E10E94840461E083E10E94840437
:101C1000E9EBF0E080818E7F808380818D7F8083FF
:101C200088E48093B80085E48093BC000895CF9346
:101C3000DF9391E0909315028823B9F0C091B8002A
:101C4000D091BA008091BC008A7B8093BC0060E098
:101C500082E10E94840460E083E10E9484040E9487
:101C6000F90DD093BA00C093B800DF91CF910895D9
:101C70008F929F92AF92BF92CF92DF92EF92FF929C
:101C80000F931F93CF93DF93D0911F03D13208F0AE
:101C9000D7C0182FC0911E030E942A066B017C0139
:101CA0008091F60281116BC082E08093F60210935E
:101CB000F5028FEF8093F4021092F302D093F202B8
:101CC000AEEFB2E0E2EDF2E080E0D81391C0109206
:101CD000D1028091D102CC0FC82BC093D102809148
:101CE000D002813009F088C01092D0020E942A06EA
:101CF0006B017C018091D1028093BB008091F8023E
:101D00009091F902A091FA02B091FB02892B8A2BE3
:101D10008B2BA1F00E942A060091F8021091F90283
:101D20002091FA023091FB026C197D098E099F09FE
:101D3000061717072807390708F442C08091BC002E
:101D400083FDD8CF85EC8093BC000E942A066B01EE
:101D50007C018091F602823009F450C08091F40237
:101D60008F3F09F46FC08091F402803209F46CC097
:101D70008091F402803309F469C084E026C0809128
:101D8000F8029091F902A091FA02B091FB02892B1E
:101D90008A2B8B2B09F484CF0E942A068090F802AC
:101DA0009090F902A090FA02B090FB026C197D09A4
:101DB0008E099F0986169706A806B90608F070CF07
:101DC0008091F7020E94170E85E01092FD0210929A
:101DD0001F031092FC02DF91CF911F910F91FF9092
:101DE000EF90DF90CF90BF90AF909F908F9008952D
:101DF0009D9191938F5F69CF85EEA5CF8091F80279
:101E00009091F902A091FA02B091FB02892B8A2BE2
:101E10008B2B09F49ECF0E942A060091F8021091A4
:101E2000F9022091FA023091FB026C197D098E09AA
:101E30009F09061717072807390708F08ACFC0CF70
:101E400081E0C3CF80E0C1CF82E0BFCF83E0BDCFD0
:101E5000CF92DF92EF92FF920F931F93CF93DF9376
:101E6000DA01A00FB11FEC01EC81FD81EA17FB073D
:101E700010F490E024C07A016B0189819A81488135
:101E800051E05093FC0240931E031092FD02109209
:101E90001F03012BF1F489819A81DC01ED91FC9102
:101EA0000280F381E02DA701B6010995E816F90635
:101EB00001F781E00E94380E91E08111DACF892F7D
:101EC000DF91CF911F910F91FF90EF90DF90CF9016
:101ED000089521153105F9F2DC01ED91FC910280A4
:101EE000F381E02D41E050E0B9010995019709F631
:101EF000D2CF2F923F924F925F926F927F928F92AA
:101F00009F92AF92BF92CF92DF92EF92FF920F9388
:101F10001F93CF93DF93CDB7DEB72A970FB6F89410
:101F2000DEBF0FBECDBF7C0180E48D83D701169646
:101F30002D913C91C901079697FD079673E0959501
:101F400087957A95E1F78987F70144815581242F98
:101F500083A594A597FD079663E0959587956A9567
:101F6000E1F7382ED70199964C90241508F4442EA9
:101F7000F70165A576A577FD60E0DA01BB27B88794
:101F8000AF83842C912C5401489FA00CB11C1124C8
:101F90002F5F260F2A87B9853B1608F097C0F701F7
:101FA000C7A0D0A4CA0CDB1C84815A84581A5418C8
:101FB000058CF68DE02D90EB930DD701DA968C9180
:101FC0009401280F311D44E0359527954A95E1F796
:101FD000205F840D8F70309709F456C0648075803F
:101FE000B1E06B1A71081A8219829A832B838C8351
:101FF000F701678D70A181A192A16933F0E97F0794
:10200000FDE08F07910510F40E94BD0610E000E08E
:1020100030E020E044E050E0BE016F5F7F4FD70129
:102020005D968D919C910E94280F6E825520B1F093
:102030002E80521408F4252C622C712C01E010E043
:102040009E012B5F3F4FA301B601F701858D968D51
:102050000E94280FC60CD71C5218E8CFD7019396C0
:102060006D917D918D919C9196976933B0E97B0735
:10207000BDE08B07910510F40E94BD063394EF81FB
:10208000F885AE0EBF1E87CF99832A838B8360E0CD
:10209000F70181A90E94840443E050E0BE016F5F14
:1020A0007F4FD7015B968D919C910E94D60561E090
:1020B000F70181A90E948404452D50E0B601D701A3
:1020C0005B968D919C910E94D605D8CF80E094E0DC
:1020D000D7019A969C938E9399979C969C938E93F6
:1020E0009B978FEF9FEF9E969C938E939D97D09694
:1020F0009C938E939F972A960FB6F894DEBF0FBEDF
:10210000CDBFDF91CF911F910F91FF90EF90DF90A6
:10211000CF90BF90AF909F908F907F906F905F9087
:102120004F903F902F9008950F931F93CF93DF937D
:1021300000D01F92CDB7DEB78C016B83FC01858D7B
:10214000968D0097B1F01A8219826A8310E000E040
:1021500030E020E042E050E0BE016F5F7F4F0E9420
:10216000280F0F900F900F90DF91CF911F910F913B
:10217000089560E081A90E94840441E050E0BE011E
:102180006D5F7F4FF801838D948D0E94D605E9CF56
:10219000611103C066EA0C94941067EAFCCFCF93F8
:1021A000DF93EC018B818823A1F0888191E09093EB
:1021B000FC0280931E031092FD0210921F0381E027
:1021C0000E94380E91E0811190E0892FDF91CF912C
:1021D000089510926602109265021092FD0210920C
:1021E0001F030E94F90D8EE896E09093640280939D
:1021F00063028FE896E0909362028093610281E02F
:102200008B83CE010E94CF10982F8111CECFDDCFCE
:10221000E091660280916502E81730F4F0E0EB503F
:10222000FE4F808190E008958FEF9FEF0895909189
:102230006602809165022FEF3FEF981748F4E92F6F
:10224000F0E0EB50FE4F208130E09F5F90936602FC
:10225000C90108958091650290916602891B990BCE
:102260000895CF92DF92EF92FF920F931F93CF9337
:10227000DF937C01CB018A012091FC02222389F0AB
:10228000EB016B01C40ED51ECC15DD0569F069911B
:10229000D701ED91FC910190F081E02DC7010995E6
:1022A000F3CF642F0E94D20DC801DF91CF911F910F
:1022B0000F91FF90EF90DF90CF900895CF93DF9331
:1022C0001F92CDB7DEB769832091FC022223F9F07B
:1022D00020911F03203258F021E030E0FC013383CD
:1022E000228390E080E00F90DF91CF91089580915C
:1022F000FD02E82FF0E0E250FD4F998190838F5F5F
:102300008093FD0280931F0381E090E0ECCF61E0B9
:10231000CE0101960E94D20DF7CF90E080E00895A3
:10232000CF93C0E08091F401C817A8F48C2F90E0FF
:10233000FC01EE0FFF1FE80FF91FE653FE4F42812D
:1023400050E06081718121E030E08CE293E00E94F6
:102350001307CF5FE7CFCF91089520E08091F4017C
:10236000281740F5422F50E0FA01EE0FFF1FE40F4F
:10237000F51FE653FE4F9091100140815181491B9A
:102380005109518340834F3F5F4F94F481508093B4
:10239000F40190E0DC01AA0FBB1FA80FB91FA653E0
:1023A000BE4F8D919D91AC9180839183A2832150EA
:1023B0002F5FD4CF0895EF92FF920F931F93CF9387
:1023C000DF9384E00E945B047C01D1E0892B09F457
:1023D000D0E082E00E945B048C01EF2869F58091D7
:1023E0000001882349F18091C5029091C602813095
:1023F000910509F010C18091B6028830E8F4282FC9
:1024000030E0F901EE0FFF1FE20FF31FE256FD4F20
:1024100020911B0130E02A5F3F4F31832083909150
:102420001C01915092838F5F8093B60280910301CB
:102430008330C1F08F3F69F1D09300010115110580
:1024400009F001C18091C5029091C60282309105C8
:1024500009F0EBC0F801DF91CF911F910F91FF9030
:10246000EF900994E8E6F5E0C491C7FDE5CF61E09F
:1024700083E00E94B204CC2309F47AC0C23009F090
:102480008FC08091B100887F84608093B10081EB20
:10249000AEC083E080930301E8E6F5E0C491CF3F4E
:1024A00059F2C13021F150F0C23009F43EC0C7FDED
:1024B000C3CF61E083E00E94B204E0CF14BC15BC3E
:1024C00084B5826084BD85B5816085BDEEEBF7E0A3
:1024D000E491F0E0EE0FFF1FE955F84F85919491DC
:1024E000E2EDF7E0E491E093BD01C0E0C0CF1092CF
:1024F000800010928100809181008860809381002B
:1025000080918100816080938100EEEBF7E0E4919F
:10251000F0E0EE0FFF1FE955F84F85919491E2ED41
:10252000F7E0E491E093BC01A2CF1092B0001092CA
:10253000B1008091B00082608093B0008091B100C2
:1025400081608093B100EEEBF7E0E491F0E0EE0FF4
:10255000FF1FE955F84F8591949190935A0280930B
:102560005902E2EDF7E0E491E0935B02C2E07FCF35
:1025700085B5887F836085BD81EB87BD88E390E06A
:10258000A0E0B0E08093C2019093C301A093C40186
:10259000B093C50180916E00826080936E004CCF35
:1025A000C130F1F480918100887F81608093810047
:1025B00083EA9CE2909389008093880088E390E00E
:1025C000A0E0B0E08093BE019093BF01A093C00152
:1025D000B093C10180916F00826080936F002CCF17
:1025E000C23021F0C11128CF83EAC7CF83EA80939C
:1025F000B30088E390E0A0E0B0E080935C029093A9
:102600005D02A0935E02B0935F02809170008260D1
:102610008093700011CF892B09F00ECF81E090E0FC
:102620009093C6028093C50207CF019761F4809111
:10263000BF029091C0020A969093C0028093BF029D
:1026400085E080931A01DF91CF911F910F91FF9048
:10265000EF9008958F929F92AF92BF920F931F9326
:10266000CF93DF93CDB7DEB7A1970FB6F894DEBF57
:102670000FBECDBF19A2423008F44AE08E010F5DB3
:102680001F4F842E912CB12CA12CA50194010E94E6
:102690005D21E62FB901CA01EA3044F5E05DD801B9
:1026A000EE938D01232B242B252B79F790E080E0EE
:1026B000109769F0FD0101900020E9F73197AF0113
:1026C0004A1B5B0BBD018CE293E00E949006A19631
:1026D0000FB6F894DEBF0FBECDBFDF91CF911F9133
:1026E0000F91BF90AF909F908F900895E95CD7CFE6
:1026F00042E050E069EB71E08CE293E00C949006CC
:10270000CF93DF930E942F0BEC010E9478138C0F64
:102710009D1FDF91CF910895CF92DF92EF92FF92AC
:102720000E948106C090C601D090C701E090C80108
:10273000F090C901AB01BC014C195D096E097F091C
:102740008091010190910201092E000CAA0BBB0B94
:1027500084179507A607B70708F062C08091F401B7
:102760008E3008F053C020E3C22ED12CE12CF12C86
:102770000E94D320A70196010E942B21DC01CB01EE
:102780004096A11DB11D9C0127513109233031050F
:1027900078F3205131092330310550F32F5031099E
:1027A0002330310528F32091F401422F50E0FA0143
:1027B000EE0FFF1FE40FF51FE653FE4F41E850E018
:1027C0005183408382832F5F2093F4018091C5025F
:1027D0009091C6028230910508F041C080911101AC
:1027E000833081F58091710281111FC00E94D32036
:1027F0002CE231E040E050E00E942B21645D7E4FEE
:102800008F4F9F4F70930201609301010E948106D8
:102810006093C6017093C7018093C8019093C9016A
:10282000FF90EF90DF90CF9008950E94D32024E690
:1028300030E040E050E00E942B216C597F4F8F4FD9
:102840009F4FE0CF0E94D32020E931E040E050E0EC
:102850000E942B2160577E4F8F4F9F4FD3CF0297FF
:10286000A9F60E94D32028EC30E040E050E00E941E
:102870002B2168537F4F8F4F9F4F709302016093BE
:10288000010182E080931001C1CF0E94C8220F9302
:102890001F93CF93DF93EC018DE591E099838883BB
:1028A0008FA198A5009721F00E943F2218A61FA291
:1028B0000B8D1C8D0115110551F0F801828193815A
:1028C000009711F00E943F22C8010E943F228D8D87
:1028D0009E8D009731F0DF91CF911F910F910C9455
:1028E0003F22DF91CF911F910F910895CF93DF93F6
:1028F000EC010E944714CE01DF91CF910C943F224E
:10290000CF93DF93EC012FA98C819D81289FB0018B
:10291000299F700D11242E813F81C901079697FDD3
:10292000079623E0959587952A95E1F7689FA00182
:10293000699F500D789F500D112470E060E08FA1C9
:1029400098A50E94CD221AA619A61CA61BA68C81AA
:102950009D8101979EA78DA78E819F81019798AB3E
:102960008FA7DF91CF91089585ED8093BC00809172
:10297000F8029091F902A091FA02B091FB02079639
:10298000A11DB11D23E0B695A795979587952A952A
:10299000D1F72091BC0024FD03C01092F6020895E7
:1029A0004091F8025091F9026091FA027091FB0295
:1029B000452B462B472B69F30097A105B10541F044
:1029C0002AE22A95F1F700C00197A109B109E1CFE8
:1029D0008091F7020C94170E1F920F920FB60F9270
:1029E00011242F933F938F939F93AF93BF93809125
:1029F000C8029091C902A091CA02B091CB02309155
:102A0000C70223E0230F2D3758F50196A11DB11DF4
:102A10002093C7028093C8029093C902A093CA0270
:102A2000B093CB028091CC029091CD02A091CE02C6
:102A3000B091CF020196A11DB11D8093CC0290935D
:102A4000CD02A093CE02B093CF02BF91AF919F91E0
:102A50008F913F912F910F900FBE0F901F9018955F
:102A600026E8230F0296A11DB11DD2CF1F920F920F
:102A70000FB60F9211242F933F934F935F936F9351
:102A80007F938F939F93AF93BF93EF93FF93809127
:102A90005C0290915D02A0915E02B0915F02892B71
:102AA0008A2B8B2BD1F190915B02E0915902F0912E
:102AB0005A0280818927808380915C0290915D0217
:102AC000A0915E02B0915F02181619061A061B0645
:102AD0009CF480915C0290915D02A0915E02B091A5
:102AE0005F020197A109B10980935C0290935D0296
:102AF000A0935E02B0935F02FF91EF91BF91AF91FF
:102B00009F918F917F916F915F914F913F912F9105
:102B10000F900FBE0F901F90189580910301E8E66B
:102B2000F5E0E4919FEF90930301E13051F030F034
:102B3000E23069F060E00E948404DECF10926E0003
:102B4000F9CF90916F009D7F90936F00F3CF90919C
:102B500070009D7F9093700091E09093B0009091F1
:102B6000B100987F94609093B1001092B300E2CFCF
:102B70001F920F920FB60F9211242F933F934F93F2
:102B80005F936F937F938F939F93AF93BF93EF93D5
:102B9000FF938091B900887F803609F44AC0F0F530
:102BA000883209F4A7C018F5803109F49BC0B8F445
:102BB000882309F4F9C0883009F494C0FF91EF919B
:102BC000BF91AF919F918F917F916F915F914F9145
:102BD0003F912F910F900FBE0F901F901895883145
:102BE00009F488C0803251F78093F40214C0803415
:102BF00009F49DC040F48033B9F38833F9F680932B
:102C0000F40285ECB0C0803509F485C0883509F43C
:102C100096C0883499F60E94B414D0CF883909F44C
:102C20008CC038F5883729F050F4883611F0803799
:102C300029F683E08093F6021092580257C0883834
:102C400009F47BC0803919F0803809F0B7CF809142
:102C50005802803208F071C0E091580281E08E0F76
:102C6000809358028091BB00F0E0E85CFD4F8083C8
:102C70003DC0803B39F0E0F4803A09F479C0883AED
:102C800009F09CCF84E08093F602109237021092F4
:102C90003602E0916302F091640209958091360258
:102CA00081110FC081E0809336021092160209C094
:102CB000803C09F4A6CF883C09F4A3CF883B09F0F7
:102CC0007DCFE091370281E08E0F80933702F0E0F4
:102CD000EA5EFD4F80818093BB0090913702809126
:102CE000360229C08091D1028093BB0085EC80938D
:102CF000BC0064CF9091F3028091F202981758F5CE
:102D0000E091F30281E08E0F8093F302F0E0EE5247
:102D1000FD4F8081E9CFE091F30281E08E0F809337
:102D2000F3028091BB00F0E0EE52FD4F8083909162
:102D3000F3028091F2029817C8F285E8D8CFE091AB
:102D4000F30281E08E0F8093F3028091BB00F0E0EC
:102D5000EE52FD4F80838091F50281115CCF81E0BE
:102D60008093D00284EA8093BC001092F60226CFB2
:102D700085EC8093BC001092F6028091580280325C
:102D800030F4E0915802F0E0E85CFD4F1082609171
:102D9000580270E0E0916102F091620288E392E0F3
:102DA0000995109258020ACF1092F40234CFA0E293
:102DB000B3E013961C921E92129748EE53E060E027
:102DC00070E014964D935D936D937C9317978BE40D
:102DD00091E011969C938E93ECE2F3E013821282C1
:102DE00020E830E03583248380E490E09783868375
:102DF0003187208793878287168A158614861786DF
:102E0000168621E0258B248B8FEF9FEF938B828B8F
:102E1000918B808B278B108E128E118E148E138EB9
:102E2000168E158E40E85AE166E070E0478F50A399
:102E300061A372A340EA56E861E070E043A354A3A3
:102E400065A376A310A617A292AB81AB94AB83AB1C
:102E500096AB85AB27ABB1AFA0AF12AE8BE891E0DC
:102E6000918380830895CF93DF93CDB7DEB7A19789
:102E70000FB6F894DEBF0FBECDBF789484B58260E4
:102E800084BD84B5816084BD85B5826085BD85B50E
:102E9000816085BD80916E00816080936E0010928C
:102EA0008100809181008260809381008091810007
:102EB0008160809381008091800081608093800098
:102EC0008091B10084608093B1008091B0008160F6
:102ED0008093B00080917A00846080937A00809122
:102EE0007A00826080937A0080917A00816080937A
:102EF0007A0080917A00806880937A001092C100F5
:102F000062E082E00E94B20462E084E00E94B204C7
:102F100061E083E00E94B20461E089E00E94B204B3
:102F200061E08AE00E94B20461E08BE00E94B2049A
:102F30008091530390915403892B09F48DC08091A3
:102F400061039091620397FD24C061E00E94B20486
:102F500061E0809161030E9484046AE070E080E097
:102F600090E00E944F0660E0809161030E9484041B
:102F70006AE070E080E090E00E944F0661E080919E
:102F800061030E9484046AE070E080E090E00E94A7
:102F90004F06E0906403F0906503E114F10409F436
:102FA000E1C186E090E00E94A3218C018CE3D8016E
:102FB0008C931296FC92EE92119713961C92139793
:102FC00080E290E015969C938E93149710934A0399
:102FD000009349030115110509F467C010926602B8
:102FE000109265021092FD0210921F030E94F90DCB
:102FF0008EE896E090936402809363028FE896E0F7
:10300000909362028093610281E0F8018383C8019A
:103010000E94CF10882309F448C08CE293E00E94FC
:103020008014109256031092550310925803109278
:1030300057038091300390913103019790935A0385
:1030400080935903809132039091330301979093B9
:103050005C0380935B0329C020916303809130035C
:1030600090913103289FA001299F500D1124209198
:10307000320330913303C901079697FD079663E049
:10308000959587956A95E1F79C01429FC001439F02
:10309000900D529F900D11240E94A32190935403F0
:1030A00080935303892B09F04ACF82E08093660313
:1030B00080913203909133037C01F0E2EF1AF10822
:1030C000F7FE04C07C012FE1E21AF108F594E794C1
:1030D00000913003109131030357110917FF02C00B
:1030E0000F5F1F4F15950795B12CA12C912CD12C5A
:1030F000C12CC60187709927990C892B59F4F601C8
:1031000083E0F595E7958A95E1F7EA0DFB1DE75910
:10311000FA4F949097FE0AC021E030E0A701B60173
:10312000600F711F8CE293E00E941D0D3FEFC31AE8
:10313000D30A43E7C416D104E1F65FEFE51AF50AB6
:103140006FE0A60EB11C70EEA71671E0B70679F617
:103150008091490390914A03009709F484C1198230
:1031600001E010E09E012F5F3F4F49E150E068E22F
:1031700071E00E94280F882359F064E670E080E037
:1031800090E00E944F066FEA8CE293E00E94941058
:1031900068EC70E080E090E00E944F068CE293E0E3
:1031A0000E9480148CE293E00E94790F1092C60274
:1031B0001092C5028091C5029091C602892B09F038
:1031C00069C00E94AD110E94DB110E948C130E9405
:1031D00081060091C1021091C2022091C302309178
:1031E000C402601B710B820B930B6132734081052B
:1031F000910580F00E9481066093C1027093C20223
:103200008093C3029093C40280911D0191E08927AD
:1032100080931D018CE293E00E9480140E94901123
:1032200084E090E0909339038093380310923B033D
:1032300010923A0382E0809340038093410381E03F
:1032400090E090933F0380933E0390933D038093DF
:103250003C0382E997E00E94801388E090E090931D
:1032600039038093380380E290E090933B0380938E
:103270003A0381E0809340038093410380911D01D4
:10328000882321F08FE797E00E9480138CE293E07F
:103290000E94790F8091C5029091C602019709F0B2
:1032A00003C680917102811116C181E480937C0074
:1032B00080917A00806480937A0080917A0086FD04
:1032C000FCCF209178003091790080910401213267
:1032D000B3E03B070CF4E0C090916802882309F446
:1032E000D2C08150992309F4D1C0E0910401F0E0EB
:1032F000EE0FFF1FEF5BFE4F808180931C0130E0DB
:1033000080919D0220911A01381708F00FC1432FB8
:1033100050E0FA01EE0FFF1FE40FF51FED58FD4FCF
:103320009091110140815181491B51095183408382
:10333000483F5F4FACF4815080939D0290E0DC01E8
:10334000AA0FBB1FA80FB91FAD58BD4F8D919D91FE
:10335000AC9180839183A2833150215020931A0134
:103360003F5FCECFE0904703F0904803E114F104B3
:1033700009F49BCED7011B968C918F3F41F061E001
:103380000E94B20461E0F70183850E948404D701A2
:103390008D919C91892B09F43CC01FB7F8948091C2
:1033A0006002811127C0E5ECF7E08491E9EDF7E0D8
:1033B0009491E82FF0E0EE0FFF1FE356F84FA59130
:1033C000B491EC91E92321F461E08AE00E94840445
:1033D00061E08AE00E94B2048CB580618CBD8CB53E
:1033E00080648CBD61E08DE00E94B20461E08BE0FE
:1033F0000E94B204809160028F5F809360021FBFC1
:1034000081E0F701838F61E080915D030E94B20447
:1034100004CE61E0F70184850E94B204D7011A96B8
:103420008C911A978B7FD9F460E01C968C910E9446
:103430008404D7011D968C918F3F41F061E00E947A
:10344000B20461E0F70185850E948404D7011E96CD
:103450008C918F3FA9F260E00E94B204D1CF61E06D
:10346000F7018485E4CF60E080915D030E948404CD
:1034700049E150E068E271E0809147039091480390
:103480000E94D60578CE911130CF82E0809304015E
:1034900081E08093680229CF283C3105BCF482305A
:1034A00058F490916702911120CF8F5F80930401AF
:1034B00081E08093670219CF823009F016CF8091A6
:1034C0006702811112CF10920401F2CF10926802AC
:1034D000109267020ACF80917002882309F40FCFFF
:1034E0000E948106009105011091060120910701BB
:1034F00030910801601B710B820B930B693B7B4081
:103500008105910508F4FBCE80911B018D5F8093AE
:103510001B0195E0909310018D3D08F4F0CE83E0FF
:1035200090E09093C6028093C502E9CE10926B02A0
:1035300010926A02109269028CEF820F823008F0BA
:103540004FC081E080936A0260916B0289E00E9423
:10355000840460916A028AE00E94840460E08BE047
:103560000E9484040E94DB1120E08091B60228179B
:1035700008F044C0422F50E0FA01EE0FFF1FE40FA5
:10358000F51FE256FD4F408151814B5F5F4F5183E4
:1035900040834734510514F181508093B60290E086
:1035A000DC01AA0FBB1FA80FB91FA256BD4F8D91FA
:1035B0009D91AC9180839183A28321508091BF0221
:1035C0009091C002181619064CF430917002311116
:1035D00005C001979093C0028093BF022F5FC5CFB3
:1035E0008EEF820F823020F481E080936B02AACFAD
:1035F000213009F0A9CF20936B02A6CF0E94AD1114
:103600000E948C1380917002811153C00E94810628
:1036100000916C0210916D0220916E0230916F0248
:10362000AB01BC01401B510B620B730B8091170166
:1036300090911801092E000CAA0BBB0B841795075B
:10364000A607B707B0F580919D028E3040F50E9425
:10365000D32020917202211137C123E030E040E0F5
:1036600050E00E942B2180919D02282F30E0F9012B
:10367000EE0FFF1FE20FF31FED58FD4F28E830E07B
:103680003183208394E16115710529F094E2613062
:10369000710509F094E392838F5F80939D020E94ED
:1036A000810660936C0270936D0280936E0290931A
:1036B0006F028CE293E00E9480140E94901110929D
:1036C00039031092380310923B0310923A0381E0C1
:1036D000809340038093410381E090E090933F0307
:1036E00080933E0390933D0380933C0387E797E0EC
:1036F0000E942F0B8091BF029091C002883E73E020
:1037000097070CF0E8C06C01092E000CEE08FF08CA
:1037100097FFDDC06DE28CE293E00E945D0A6627B0
:103720007727CB016C197D098E099F094AE00E9419
:103730002A130E94781310E000E0F0907102F1105B
:1037400009C021E030E048E150E0B8018CE293E0AC
:103750000E94130721E030E048E250E0B8018CE21B
:1037600093E00E941307F11009C021E030E048E324
:1037700050E0B8018CE293E00E9413070E5F1F4FE8
:1037800000381105D1F6EE24E394F12C0AE010E0A4
:1037900020E830E04AE050E070E060E08CE293E046
:1037A0000E94A90B8091710281110CC005E110E00B
:1037B00020E430E04BE150E060E470E08CE293E024
:1037C0000E94A90BEE24E394F12C05E210E020E422
:1037D00030E04BE250E060E470E08CE293E00E9465
:1037E000A90B8091710281110CC005E310E020E467
:1037F00030E04BE350E060E470E08CE293E00E9444
:10380000A90BB12C80919D02B81608F069C08B2DD0
:1038100090E06C01CC0CDD1CC80ED91EC6018D5881
:103820009D4F6C01DC0112964C91129750E06D9106
:103830007C91EE24E394F12C08E010E028E030E0E5
:103840008CE293E00E943E0CF60140815181209170
:103850001B0130E0C9010596841795079CF1809102
:103860009D0225503109485F5F4F4217530754F1BD
:10387000228130E040911C0150E0BA016B5F7F4F24
:1038800062177307FCF045505109285F3F4F24171A
:103890003507C4F0815080939D0290E0FC01EE0F4B
:1038A000FF1FE80FF91FED58FD4F80819181A28124
:1038B000F60180839183A283BA9480911A0181508A
:1038C00080931A01B3949ECF61E070E0CCCE4AE0C1
:1038D000C701B6012CCF83E797E00E9480132BCF5E
:1038E000B12CAA24A3948091B602B81608F078C12E
:1038F0004B2C512C1201220C331CC101840D951D3F
:103900009C0122563D4F6901390132E0630E711C62
:10391000D60112964C91129750E06D917C91EE2455
:10392000E394F12C03E010E026E030E08CE293E039
:103930000E943E0CF0909D02E3E7F2E0912C812C76
:103940008F1408F06DC080819181D6012D913C913A
:10395000A9014A5F5F4F481759079CF008968217E4
:1039600093077CF0828190E0D3012C9130E0A90193
:103970004D5F5F4F4817590724F008968217930749
:103980002CF4BFEF8B1A9B0A3396DACF8091BF02DB
:103990009091C00201969093C0028093BF028A303A
:1039A000910564F0209119012223E1F1E0E2F3E0B6
:1039B000F0931801E093170110921901FA94F09214
:1039C0009D02F401EE0FFF1FE80DF91DED58FD4FAC
:1039D0008F2D90E0DC01AA0FBB1FA80FB91FAD58B7
:1039E000BD4F8D919D91AC9180839183A2838091F5
:1039F000B60281508093B602F101E40DF51DE25646
:103A0000FD4F90E0DC01AA0FBB1FA80FB91FA25603
:103A1000BD4F8D919D91AC9180839183A283BA9487
:103A2000B39461CF8E3191054CF22091160122237F
:103A300049F028E532E030931801209317011092E5
:103A40001601BCCF8C3391050CF4B8CF2091150131
:103A5000222349F040E951E05093180140931701A7
:103A600010921501ABCF863991050CF4A7CF2091A8
:103A70001401222349F067E771E070931801609305
:103A80001701109214019ACF843571E097070CF456
:103A900095CF20911301222349F08CEB92E0909373
:103AA0001801809317011092130188CF8E35A1E081
:103AB0009A070CF483CF20911201222349F083E06E
:103AC0008093110182E0809310011092120176CF51
:103AD0008237B1E09B070CF471CF20910F012223B4
:103AE00049F0E6E2F2E0F0931801E093170110923A
:103AF0000F0164CF8039F1E09F070CF45FCF209174
:103B00000E01222349F022EC31E03093180120937A
:103B1000170110920E0152CF843F31E093070CF44D
:103B20004DCF20910D01222349F048E651E05093FA
:103B300018014093170110920D0140CF8C3B52E0C9
:103B400095070CF43BCF20910C01222349F06AE445
:103B500071E0709318016093170110920C012ECF41
:103B6000803773E097070CF429CF20910B012223B3
:103B700029F0A092720210920B0120CF8438A3E0AA
:103B80009A070CF41BCF20910A01222389F0A092FE
:103B90007102B8E2B0931C01E4E0E09310012FEA57
:103BA00030E0309318012093170110920A0106CFDC
:103BB000883E93400CF402CFA092700280910901DC
:103BC000882309F4FBCE0E9481066093050170935F
:103BD0000601809307019093080110920901EECE2F
:103BE000C0901C01D12C80911B0190E0AC014B5F77
:103BF0005F4F5B834A830597560155E0A50EB11CC4
:103C0000160165E0261A31082A143B040CF0A2C004
:103C1000AA81BB81B987A8879B838A833C2D2D2DE0
:103C200061011501A32EB22E28853985EA81FB8119
:103C30002E1B3F0BAC014E1B5F0B5F8B4E8BB101FC
:103C40006C197D097B876A87DC01E885F985AE1BE5
:103C5000BF0BB98FA88FA1014A195B095F874E87F7
:103C6000450151E0851A91082A143B0409F44101E9
:103C700076011C821D821E821F82412C512C320132
:103C80006E897F89072E000C880B990B6A8B7B8BC2
:103C90008C8B9D8B8A859B85092E000CAA0BBB0BF8
:103CA0008A8F9B8FAC8FBD8FA901330F660B770B6B
:103CB0004E8F5F8F68A379A38E149F040CF44DC0C0
:103CC000C301B20125E030E040E050E00E942B212A
:103CD0000A811B81020F131F6C817D818E819F8160
:103CE0002A8D3B8D4C8D5D8D0E942B216A817B81BD
:103CF000620F731F8E8D9F8DA8A1B9A1480E591E0A
:103D00006A1E7B1E2C813D814E815F818A899B8941
:103D1000AC89BD89280F391F4A1F5B1F2C833D8347
:103D20004E835F83601771072CF0962F872FB801A1
:103D3000092F182F061B170B98012F5F3F4F01E02B
:103D400010E0A7018CE293E00E94050D9FEFE91AB5
:103D5000F90AB2CF9987888767CF288D398D032ECE
:103D6000000C440B550B2C833D834E835F839701DE
:103D70002A193B09A88DB98D0E948E214B015C0147
:103D800097012C193D09AE89BF890E948E212B0114
:103D90003C014E855F85052E000C660B770B4E8728
:103DA0005F87688B798B6A857B85072E000C880B73
:103DB000990B6A877B878C879D872E143F040CF4B0
:103DC00040C0C501B4012E853F85488959890E94AC
:103DD0002B2108851985020F131FC301B2012A8503
:103DE0003B854C855D850E942B216A817B81620F1A
:103DF000731F8C819D81AE81BF81880E991EAA1E82
:103E0000BB1E2A893B894C895D89420E531E641E64
:103E1000751E601771072CF0962F872FB801092F98
:103E2000182F061B170B98012F5F3F4F01E010E082
:103E3000A7018CE293E00E94050D3FEFE31AF30A1D
:103E4000BCCF8CE293E00E94790F80911A01181682
:103E50005CF10FEF10E061E089E00E94B20401150F
:103E6000110509F009C160E089E00E94840464E062
:103E700070E080E090E00E944F060150110958F771
:103E800061E089E00E94B20460E089E00E9484045D
:103E900068EE73E080E090E00E944F0682E090E0E0
:103EA0009093C6028093C5028091C5029091C6028C
:103EB000029709F06FC00E94AD110E94DB110E94B1
:103EC0008C130E9481060091BB021091BC022091CC
:103ED000BD023091BE02601B710B820B930B6132ED
:103EE00073408105910580F00E9481066093BB02BA
:103EF0007093BC028093BD029093BE0280911D011D
:103F000091E0892780931D018CE293E00E94801448
:103F10000E94901186E090E09093390380933803DB
:103F200010923B0310923A0382E080934003809307
:103F3000410301E010E010933F0300933E03109310
:103F40003D0300933C0388E697E00E9480131093A2
:103F500039030093380380E290E090933B03809311
:103F60003A0381E0809340038093410310933F0321
:103F700000933E0310933D0300933C0380911D0189
:103F8000882321F082E597E00E9480138CE293E081
:103F90000E94790F8091C5029091C602039709F0A3
:103FA0005DC00E9481060091B7021091B802209175
:103FB000B9023091BA02601B710B820B930B613214
:103FC00073408105910580F00E9481066093B702DD
:103FD0007093B8028093B9029093BA0280911D0148
:103FE00091E0892780931D018CE293E00E94801468
:103FF00084E190E0909339038093380388E190E066
:1040000090933B0380933A0382E080934003809334
:10401000410381E090E090933F0380933E039093AF
:104020003D0380933C0389E497E00E9480138091D4
:104030001D01882379F0EE24E394F12C08E110E0CF
:1040400026E730E044E150E065E070E08CE293E088
:104050000E944A0B8CE293E00E94790F61E070E0CD
:1040600080E090E00E944F0680E090E0892B09F408
:10407000A1C80E9400009EC80F3F110511F461E025
:10408000F3CEECEEF7E08491833019F140F4813007
:10409000B1F08230C9F0003811058CF7E4CE8730DA
:1040A00011F1883041F18430B1F780918000806255
:1040B0008093800010938B0000938A00D8CE84B543
:1040C000806884BD07BDD3CE84B5806284BD08BD41
:1040D000CECE80918000806880938000109389000C
:1040E00000938800C4CE8091B00080688093B000B7
:1040F0000093B300BCCE8091B00080628093B0008A
:104100000093B400B4CE8CE293E00C9447148F92E9
:104110009F92AF92BF92CF92DF92EF92FF92CF9396
:10412000DF93EC01688179818A819B81611571053A
:104130008105910521F464E279ED8BE597E02DE1AD
:1041400033EF41E050E00E942B2149015A019B01CD
:10415000AC01A7EAB1E40E944A216B017C01ACEEFC
:10416000B4EFA50194010E945821C60ED71EE81E87
:10417000F91EF7FE06C081E0C81AD108E10880E800
:10418000F80AC882D982EA82FB82C701B6019F770A
:10419000DF91CF91FF90EF90DF90CF90BF90AF90E5
:1041A0009F908F9008958F929F92AF92BF92CF92DF
:1041B000DF92EF92FF9260911E0170911F0180913A
:1041C000200190912101611571058105910521F46E
:1041D00064E279ED8BE597E02DE133EF41E050E0CB
:1041E0000E942B2149015A019B01AC01A7EAB1E4CD
:1041F0000E944A216B017C01ACEEB4EFA501940151
:104200000E945821C60ED71EE81EF91EF7FE06C0F2
:1042100081E0C81AD108E10880E8F80AC0921E01BE
:10422000D0921F01E0922001F0922101C701B60156
:104230009F77FF90EF90DF90CF90BF90AF909F90CF
:104240008F90089560931E0170931F018093200149
:10425000909321010895052E97FB1EF400940E946F
:10426000422157FD07D00E945D2107FC03D04EF488
:104270000C94422150954095309521953F4F4F4FDA
:104280005F4F089590958095709561957F4F8F4F02
:104290009F4F08950E947F21A59F900DB49F900D80
:1042A000A49F800D911D11240895B7FF0C944A21FD
:1042B0000E944A21821B930B0895A1E21A2EAA1B89
:1042C000BB1BFD010DC0AA1FBB1FEE1FFF1FA217C6
:1042D000B307E407F50720F0A21BB30BE40BF50BC3
:1042E000661F771F881F991F1A9469F7609570954C
:1042F000809590959B01AC01BD01CF010895A29FCF
:10430000B001B39FC001A39F700D811D1124911DA9
:10431000B29F700D811D1124911D08950E947F216F
:10432000332312F48A1B9B0B0C9498210E947F214B
:10433000B7FF0895821B930B0895EE0FFF1F0590A2
:10434000F491E02D09940F931F93CF93DF93823064
:10435000910510F482E090E0E0916903F0916A0326
:1043600030E020E0B0E0A0E0309799F4211531056D
:1043700009F44AC0281B390B24303105D8F58A814D
:104380009B816115710589F1FB0193838283FE0195
:1043900011C0408151810281138148175907E0F013
:1043A0004817590799F4109761F012960C931297D9
:1043B00013961C933296CF01DF91CF911F910F91ED
:1043C00008950093690310936A03F4CF2115310512
:1043D00051F04217530738F0A901DB019A01BD01E2
:1043E000DF01F801C1CFEF01F9CF90936A03809309
:1043F0006903CDCFFE01E20FF31F81939193225009
:10440000310939832883D7CF20916703309168031E
:10441000232B41F42091240130912501309368032E
:10442000209367032091220130912301211531054A
:1044300041F42DB73EB74091260150912701241B2E
:10444000350BE0916703F0916803E217F307A0F4DE
:104450002E1B3F0B2817390778F0AC014E5F5F4FDA
:104460002417350748F04E0F5F1F509368034093A1
:104470006703819391939FCFF0E0E0E09CCFCF93CF
:10448000DF930097E9F0FC01329713821282A0912A
:104490006903B0916A03ED0130E020E01097A1F4C8
:1044A00020813181820F931F20916703309168032F
:1044B0002817390709F061C0F0936803E093670398
:1044C000DF91CF910895EA01CE17DF07E8F54A8121
:1044D0005B819E0141155105B1F7E901FB83EA8338
:1044E00049915991C40FD51FEC17FD0761F48081E4
:1044F00091810296840F951FE901998388838281B7
:1045000093819B838A83F0E0E0E012968D919C91E9
:1045100013970097B9F52D913C911197CD01029613
:10452000820F931F20916703309168032817390782
:1045300039F6309751F510926A0310926903B093DF
:104540006803A0936703BCCFD383C28340815181AA
:10455000840F951FC817D90761F44E5F5F4F88819C
:104560009981480F591F518340838A819B8193838E
:1045700082832115310509F0B0CFF0936A03E093EF
:1045800069039ECFFD01DC01C0CF13821282D7CF19
:1045900081E090E0F8940C94D422DC0101C06D938A
:1045A00041505040E0F7089513E0CDEFD3E004C050
:1045B000FE010E949D212196CE3FD107C9F7F894B4
:1045C000FFCF019001FF01FFFFFFFF01010101018A
:1045D000010101020101010101E8030105102801A7
:1045E0000100000000006B038000AED580A83FD31F
:1045F0000040AD8BA1C8DA1281FFD91FDB4033A682
:104600002010A4180028003800000000005E1131BE
:10461000118D118D062A1117110811000000005D7F
:104620000A90068D11D10D13078D061D0DF50C1185
:104630000D050D240D8D062308C810BC0C830C3EFF
:104640000C210CA90B4A0B4514000000005D0A90D8
:10465000068D11D10D13078D061D0DF50C110D05DD
:104660000D240D8D062308C810BC0C830C3E0C21B4
:0E4670000CA90B4A0B790F471476140D0A00A3
:107E0000112484B714BE81FFF0D085E080938100F7
:107E100082E08093C00088E18093C10086E0809377
:107E2000C20080E18093C4008EE0C9D0259A86E02C
:107E300020E33CEF91E0309385002093840096BBD3
:107E4000B09BFECF1D9AA8958150A9F7CC24DD24C4
:107E500088248394B5E0AB2EA1E19A2EF3E0BF2EE7
:107E6000A2D0813461F49FD0082FAFD0023811F036
:107E7000013811F484E001C083E08DD089C08234E0
:107E800011F484E103C0853419F485E0A6D080C0E4
:107E9000853579F488D0E82EFF2485D0082F10E0AE
:107EA000102F00270E291F29000F111F8ED06801E7
:107EB0006FC0863521F484E090D080E0DECF843638
:107EC00009F040C070D06FD0082F6DD080E0C81688
:107ED00080E7D80618F4F601B7BEE895C0E0D1E017
:107EE00062D089930C17E1F7F0E0CF16F0E7DF06D8
:107EF00018F0F601B7BEE89568D007B600FCFDCFD4
:107F0000A601A0E0B1E02C9130E011968C91119780
:107F100090E0982F8827822B932B1296FA010C0160
:107F200087BEE89511244E5F5F4FF1E0A038BF0790
:107F300051F7F601A7BEE89507B600FCFDCF97BE46
:107F4000E89526C08437B1F42ED02DD0F82E2BD052
:107F50003CD0F601EF2C8F010F5F1F4F84911BD097
:107F6000EA94F801C1F70894C11CD11CFA94CF0C13
:107F7000D11C0EC0853739F428D08EE10CD085E9AC
:107F80000AD08FE07ACF813511F488E018D01DD067
:107F900080E101D065CF982F8091C00085FFFCCF94
:107FA0009093C60008958091C00087FFFCCF809118
:107FB000C00084FD01C0A8958091C6000895E0E648
:107FC000F0E098E1908380830895EDDF803219F02E
:107FD00088E0F5DFFFCF84E1DECF1F93182FE3DFCA
:107FE0001150E9F7F2DF1F91089580E0E8DFEE27F6
:047FF000FF270994CA
:027FFE00040479
:00000001FF
