:020000040000FA
:100000000C94D4030C94FC030C94FC030C94FC039C
:100010000C94FC030C94FC030C94FC030C94E6126B
:100020000C94FC030C94FC030C94FC030C94FC0354
:100030000C94FC030C94FC030C94FC030C94FC0344
:100040000C949C120C94FC030C94FC030C94FC0385
:100050000C94FC030C94FC030C94FC030C94FC0324
:100060000C9468130C94FC0300000000003E5B4FEE
:100070005B3E3E6B4F6B3E1C3E7C3E1C183C7E3C08
:10008000181C577D571C1C5E7F5E1C00183C180016
:10009000FFE7C3E7FF0018241800FFE7DBE7FF30A6
:1000A000483A060E2629792926407F050507407F14
:1000B00005253F5A3CE73C5A7F3E1C1C08081C1C87
:1000C0003E7F14227F22145F5F005F5F06097F017D
:1000D0007F006689956A606060606094A2FFA29468
:1000E00008047E040810207E201008082A1C080836
:1000F0001C2A08081E101010100C1E0C1E0C303884
:100100003E3830060E3E0E06000000000000005F84
:1001100000000007000700147F147F14242A7F2AA0
:100120001223130864623649562050000807030062
:10013000001C2241000041221C002A1C7F1C2A08AE
:10014000083E080800807030000808080808000011
:1001500060600020100804023E5149453E00427F85
:10016000400072494949462141494D331814127FD4
:100170001027454545393C4A494931412111090774
:100180003649494936464949291E000014000000F5
:1001900040340000000814224114141414140041C7
:1001A00022140802015909063E415D594E7C121184
:1001B000127C7F494949363E414141227F414141BC
:1001C0003E7F494949417F090909013E4141517337
:1001D0007F0808087F00417F41002040413F017FA8
:1001E000081422417F404040407F021C027F7F0470
:1001F00008107F3E4141413E7F090909063E4151B9
:10020000215E7F09192946264949493203017F01A8
:10021000033F4040403F1F2040201F3F4038403FA9
:10022000631408146303047804036159494D4300BF
:100230007F4141410204081020004141417F0402F6
:10024000010204404040404000030708002054548D
:1002500078407F284444383844444428384444286B
:100260007F385454541800087E090218A4A49C78BE
:100270007F0804047800447D40002040403D007F1A
:100280001028440000417F40007C047804787C08FA
:100290000404783844444438FC18242418182424CE
:1002A00018FC7C08040408485454542404043F44B3
:1002B000243C4040207C1C2040201C3C4030403CE2
:1002C00044281028444C9090907C4464544C440042
:1002D00008364100000077000000413608000201A6
:1002E0000204023C2623263C1EA1A161123A404092
:1002F000207A38545455592155557941225454780F
:1003000042215554784020545579400C1E527212A7
:100310003955555559395454545939555454580030
:1003200000457C410002457D420001457C407D1234
:1003300011127DF0282528F07C5455450020545496
:100340007C547C0A097F4932494949323A44444441
:100350003A324A4848303A4141217A3A424020787C
:10036000009DA0A07D3D4242423D3D4040403D3C7D
:1003700024FF2424487E4943662B2FFC2F2BFF09A2
:1003800029F620C0887E0903205454794100004496
:100390007D413048484A32384040227A007A0A0A81
:1003A000727D0D19317D2629292F282629292926F4
:1003B00030484D4020380808080808080808382F39
:1003C00010C8ACBA2F102834FA00007B00000814C3
:1003D0002A142222142A14085500550055AA55AA99
:1003E00055AAFF55FF55FF000000FF00101010FF39
:1003F00000141414FF001010FF00FF1010F010F094
:10040000141414FC001414F700FF0000FF00FF1484
:1004100014F404FC141417101F10101F101F1414D0
:10042000141F00101010F0000000001F101010101A
:100430001F10101010F010000000FF10101010100E
:1004400010101010FF10000000FF140000FF00FF4C
:1004500000001F10170000FC04F4141417101714E8
:1004600014F404F40000FF00F7141414141414140A
:10047000F700F7141414171410101F101F1414147D
:10048000F4141010F010F000001F101F0000001FE7
:1004900014000000FC140000F010F01010FF10FF1A
:1004A000141414FF141010101F00000000F010FFAF
:1004B000FFFFFFFFF0F0F0F0F0FFFFFF0000000093
:1004C00000FFFF0F0F0F0F0F3844443844FC4A4A17
:1004D0004A347E02020606027E027E0263554941CC
:1004E000633844443C04407E201E2006027E020203
:1004F00099A5E7A5991C2A492A1C4C7201724C3017
:100500004A4D4D303048784830BC625A463D3E49ED
:100510004949007E0101017E2A2A2A2A2A44445F91
:10052000444440514A444040444A51400000FF0185
:1005300003E080FF000008086B6B08361236243693
:10054000060F090F060000181800000010100030F8
:1005500040FF0101001F01011E00191D1712003C80
:100560003C3C3C0000000000000060000000000077
:10057000000000000000000000E00000000000009B
:100580000000000000000001E0000000000000008A
:1005900000000000000001F000000000000000006A
:1005A000000000000003F000000000000000000058
:1005B0000000000007F00000000000000000000044
:1005C00000000007F800000000000000000000002C
:1005D00000000FF800000003C0007E000001E000F2
:1005E0007F0FF800000003C000FE000001E000FFE4
:1005F000EFF800000003C000FE000001E000FFFF74
:10060000F800000003C000F00000000F007FFE7F34
:10061000C0000003C000F00000000F003FFE7FF8A4
:100620003FF1FBCFFCFEF3BC3DEFE01FFE7FFF7F01
:10063000FBFFDFFEFEFFBC3DEFE01FC6FFFF7FFBC1
:10064000FFDFFEFEFFBC3DEFE00FE3C7FE787BC39C
:10065000DE1EF0FFBC3DEF0007FF87FC787BC3DEAA
:100660001EF0F83C3DEF0001FFFFF0007BC3C01E11
:10067000F0F03C3DEF0001F37FE03FFBC3CFFEF025
:10068000F03C3DEF0003E33F807FFBC3DFFEF0F073
:100690003C3DEF0007E73C00787BC3DE1EF0F03CFA
:1006A0003DEF0007FFBE00787BC3DE1EF0F03C3D4F
:1006B000EF0007FFFE00787BC3DE1EF0F03C3DEF4D
:1006C000000FFFFE007FFBFFDFFEF0F03FFDEFE0DD
:1006D0000FFFFF007FFBFFDFFEF0F03FFDEFE00FBD
:1006E000F9FF003E79F9CF9EF0F01F3DE7E01FF1E2
:1006F000FF0000000000000000000000001F80FF5D
:10070000007FFFFFFFFFFFFFFFFFFFE01C007F00F8
:100710007FFFFFFFFEB46D888D18E000001F007F93
:10072000FFFFFFFE95AD7DB577E000000F007FFF76
:10073000FFFFFEA5AD9D8D19E0000006007FFFFFC5
:10074000FFFEB5ADEDB57EE0000000002300260001
:1007500029000200000000240027002A00000000F9
:1007600000250028002B00040404040404040402EF
:10077000020202020203030303030301020408103E
:10078000204080010204081020010204081020000B
:100790000000080002010000030407000000000040
:1007A000000000008714F41911241FBECFEFD8E019
:1007B000DEBFCDBF11E0A0E0B1E0E6E8F8E302C0A3
:1007C00005900D92AA3BB107D9F723E0AAEBB1E05F
:1007D00001C01D92A33EB207E1F713E0C3EDD3E0E1
:1007E00004C02197FE010E94FF1AC23DD107C9F73C
:1007F0000E94E3140C94361C0C940000FC01208130
:100800002EBD0DB407FEFDCF2EB5FC01208308954B
:10081000833081F028F4813099F08230A9F0089576
:100820008730A9F08830C9F08430B1F4809180001D
:100830008F7D03C0809180008F7780938000089522
:1008400084B58F7784BD089584B58F7DFBCF80916B
:10085000B0008F778093B00008958091B0008F7DB5
:10086000F9CF1F93CF93DF93282F30E0F901E157A1
:10087000F84F8491F901E558F84FD491F901E959FD
:10088000F84FC491CC23A9F0162F81110E940804BF
:10089000EC2FF0E0EE0FFF1FE35AF84FA591B49153
:1008A0008FB7F894EC91111108C0D095DE23DC933A
:1008B0008FBFDF91CF911F910895DE2BF8CFCF939B
:1008C000DF9390E0FC01E558F84F24918959984F47
:1008D000FC0184918823C9F090E0880F991FFC01E6
:1008E000ED5AF84FA591B491FC01E35AF84FC59128
:1008F000D49161110DC09FB7F8948C9120958223FB
:100900008C938881282328839FBFDF91CF910895FE
:10091000623051F49FB7F8943C91822F80958323E5
:100920008C93E8812E2BEFCF8FB7F894EC912E2B80
:100930002C938FBFEACF8E3008F08E508770806482
:1009400080937C0080917A00806480937A0080910B
:100950007A0086FDFCCF809178009091790008950F
:100960008230910538F0880F991F880F991F0597DD
:100970000197F1F708959F92AF92BF92CF92DF92C5
:10098000EF92FF920F931F93CF93DF93EC015B01E4
:100990008885998511E0892B09F010E8F501E08040
:1009A0008E2D8123992493948111912C2C813D814A
:1009B0004E815F8160E271EA87E090E00E94CE1A8A
:1009C000022FF12CC22ED12C002319F0C6010E9457
:1009D000B0048A85982F977F09F04FC08D858F3F8F
:1009E00089F09E2D912381E009F480E0891551F072
:1009F000EF85F8898F899923D1F19081892B8083A4
:100A000099249394E989FA898081998D892B80832F
:100A1000002319F0C6010E94B0048E858F3F39F083
:100A2000EB89FC898081988D892309F0F12AE98975
:100A3000FA899081898D809589238083888599851D
:100A4000892B09F073C0110F1111BECF8E858F3F16
:100A500011F0F501F082DF91CF911F910F91FF907E
:100A6000EF90DF90CF90BF90AF909F9008959081CE
:100A7000809589238083912CC5CF8C30A1F58D85FD
:100A80008F3F49F0EF85F8898F899E2D912339F1A9
:100A90009081892B8083E989FA899081898D80955D
:100AA00089238083002319F0C6010E94B004E989DC
:100AB000FA898081998D892B8083002319F0C601E2
:100AC0000E94B0048E858F3F09F4B8CFEB89FC8972
:100AD0008081988D892309F4B1CFF12AAFCF90811D
:100AE00080958923D7CFE989FA898081998D892BCF
:100AF0008083002319F0C6010E94B0048D858F3FCA
:100B000049F0EF85F8898F899E2D912359F09081C6
:100B1000892B8083E989FA899081898D8095892341
:100B20008083D0CF908180958923F3CF16958CCF89
:100B3000AF92BF92CF92DF92EF92FF920F931F93EB
:100B4000CF93DF931F92CDB7DEB78C015B016A01B3
:100B5000DC018D919C911197892B39F01296ED91C2
:100B6000FC91908181819CBD8DBDF80183858F3F73
:100B700019F060E00E9431047501CA0CDB1CCE1430
:100B8000DF04A9F0D7018D917D018983F80180816F
:100B90009181892B29F0CE0101960E94FE03EFCFAF
:100BA000BE016F5F7F4FC8010E94BB04E8CFD80130
:100BB0001B968C918F3F19F061E00E94310481E017
:100BC0000F90DF91CF911F910F91FF90EF90DF90E9
:100BD000CF90BF90AF9008953FB7F89480914403B1
:100BE00090914503A0914603B091470326B5A89B79
:100BF00005C02F3F19F00196A11DB11D3FBFBA2FAF
:100C0000A92F982F8827BC01CD01620F711D811D6E
:100C1000911D42E0660F771F881F991F4A95D1F7F3
:100C200008958F929F92AF92BF92CF92DF92EF92F0
:100C3000FF924B015C010E94EC056B017C010E945C
:100C4000EC056C197D098E099F09683E734081058A
:100C50009105A8F321E0821A9108A108B10888EE55
:100C6000C80E83E0D81EE11CF11C81149104A1047C
:100C7000B10429F7FF90EF90DF90CF90BF90AF9035
:100C80009F908F900895089508950895AF92BF9210
:100C9000CF92DF92EF92FF920F931F93CF93DF9348
:100CA0006C017B018B01040F151FEB015E01AE1877
:100CB000BF08C017D10759F06991D601ED91FC9199
:100CC0000190F081E02DC6010995892B79F7C501C6
:100CD000DF91CF911F910F91FF90EF90DF90CF9018
:100CE000BF90AF9008959B01AC0160E074E284EF87
:100CF00090E00E94CE1ABA01A90140515109610940
:100D00007109DB01CA01B695A79597958795813C36
:100D10002FE39207A105B105D0F58F3F9105A105FD
:100D2000B10509F030F41092B9008093B80081E069
:100D300008958D3F23E09207A105B10568F4DB011A
:100D4000CA0143E0B695A795979587954A95D1F73F
:100D500021E02093B900E9CF813F9F40A105B10573
:100D600058F4DB01CA0135E0B695A79597958795AC
:100D70003A95D1F722E0EDCFDB01CA0127E0B69525
:100D8000A795979587952A95D1F723E0E2CF80E044
:100D90000895FF920F931F93CF93DF93FC0177FD8C
:100DA00072C080859185681779070CF06CC057FD7B
:100DB0006AC082859385481759070CF064C08689FC
:100DC000823009F466C0833009F474C0813041F484
:100DD00084819581841B950BAB01BC016150710925
:100DE00081A592A5681779070CF4CB0192A781A77A
:100DF00083A594A5481759070CF4CA0194A783A7A3
:100E000085A596A5861797070CF4CB0196A785A70D
:100E100087A590A9841795070CF4CA0190AB87A702
:100E200087A9813051F42130310509F44CC008F410
:100E300070C02230310509F491C087A9843019F5BA
:100E4000A481B5814A9FC0014B9F900D5A9F900D80
:100E5000112497FD019695958795AB0177FF02C008
:100E60004F5F5F4F55954795840F951F07A0F0A5DD
:100E7000E02DE80FF91F908160FD95C09F702295CD
:100E8000207F922B9083DF91CF911F910F91FF9044
:100E90000895848195818C01061B170BB801615060
:100EA000710986819781DC01A41BB50BAD0141500E
:100EB000510996CF86819781861B970BBA01AC01A9
:100EC000415051098DCFCA0157FD0796C3E0959552
:100ED0008795CA95E1F7C481D5818C9FD0018D9FFC
:100EE000B00D9C9FB00D1124CD01860F971FA7A1B7
:100EF000B0A5A80FB91FEA01C770DD2781E090E017
:100F00008C0101C0000FCA95EAF78C91802B8C935D
:100F100094CFCA0157FD0796B3E095958795BA958A
:100F2000E1F7C481D5818C9FD0018D9FB00D9C9F2E
:100F3000B00D1124CD01860F971FA7A1B0A5A80F52
:100F4000B91FEA01C770DD2781E090E001C0880F7A
:100F5000CA95EAF780959C918923D9CFCA0157FD9C
:100F60000796A3E095958795AA95E1F7C481D58169
:100F70008C9FD0018D9FB00D9C9FB00D1124CD0191
:100F8000860F971FA7A1B0A5A80FB91FEA01C770C8
:100F9000DD2781E090E08C0101C0000FCA95EAF7DF
:100FA0008C918027B4CF907F2F70292B20836BCF1B
:100FB0000895FC016370668B848195812681378159
:100FC000613039F0633029F0918780873387228739
:100FD0000895318720879387828708952F923F92C3
:100FE0004F925F926F927F928F929F92AF92BF9239
:100FF000CF92DF92EF92FF920F931F93CF93DF93E5
:10100000CDB7DEB76A970FB6F894DEBF0FBECDBF7F
:101010009A8F898F7A8369834A01D22E18870F832A
:101020003701BC2CDC0159962D913C915A97211522
:10103000310509F015C118968D919C911997681783
:1010400079070CF0D7C11A968D919C9148175907D2
:101050000CF0D0C14C2C512CB6E0CB9E600D711D14
:1010600011247C876B87161617060CF0C3C1EA2D76
:10107000F0E0FA87E98793E0EE0FFF1F9A95E1F71A
:10108000F88BEF87CF01840F951F181619060CF007
:10109000B1C1A98DBA8D58968C91811104C0BFEA57
:1010A000BD1508F4D394A98DBA8DED91FC911197DB
:1010B0000284F385E02DCD010995B5E0DB9EC001EA
:1010C0001124E981FA81FC83EB83312C212C9C01D2
:1010D00028593F4F388F2F8B4A2D50E05E8B4D8B18
:1010E000EF89F88DE20DF31D44919E828D82D12C03
:1010F000C12C69817A81620D731D7A8B698B842F73
:1011000090E09C8B8B8BE98DFA8DA081B18140FFA3
:1011100082C0F1E0BF126FC0AF126DC01C96ED919E
:10112000FC912F813885A4014C0D5D1D69897A8958
:10113000898D9A8D0995EB89FC89F595E7954E2F58
:101140005FEFC51AD50A6D817E818D899E89680FF2
:10115000791F7E836D8398E0C916D10481F6AFEFC5
:101160002A1A3A0AEB81FC81E40DF51DFC83EB831E
:10117000F5E02F16310409F0B3CF2F8138852615FD
:101180003705B9F0A98DBA8DED91FC91B1E0BB1294
:1011900057C0AB1255C069817A816B5F7F4F008861
:1011A000F189E02D830128E030E0A401898D9A8D3A
:1011B0000995A98DBA8DED91FC9111970688F78953
:1011C000E02DCD016A960FB6F894DEBF0FBECDBFFD
:1011D000DF91CF911F910F91FF90EF90DF90CF9013
:1011E000BF90AF909F908F907F906F905F904F9047
:1011F0003F902F9009941E96ED91FC91EF80F8841A
:1012000009851A8592014D815E816B817C81898D72
:101210009A8D099590CF2F8138852615370509F4C9
:101220008ACF31E0B31207C0A31205C01C96ED911E
:10123000FC91930178CF1E96ED91FC917301E0CF64
:101240006B857C85641975090684F785E02D73012B
:101250000F8518899201A401898D9A8D0995A9CFCE
:10126000F90134969491329745915491D91AB7E087
:10127000DB9E400D511D1124F901259134913C8BC9
:101280002B8BFA0125903490FA01329674903196A6
:101290003491398B329664903196449041E04C15EC
:1012A00018F04A1508F07FC0662D062C000C770B4D
:1012B0007C836B83842D042C000C990B9E838D837F
:1012C000A98DBA8DED91FC9111970284F385E02DE3
:1012D000CD010995512CD12CC12CEA2DF0E0FA87D3
:1012E000E9872B2D30E03C872B87A401440D511D4D
:1012F00047FC5A95588F4F8B69817A81660D711D15
:1013000067FC7A957E876D877989C71608F051CF7B
:101310002C2D30E04D815E81420F531FA985BA8587
:101320004A9FC0014B9F900D5A9F900D1124FC01C4
:10133000E80DF91DF88BEF87852D612C4F89588DAD
:10134000420F531F5E8B4D8B671408F050C044242E
:101350004394480E877041F4C1010196EB89FC89E2
:10136000E20DF31DD4901C01D7FE19C0A98DBA8DD2
:10137000ED91FC91662D70E0B1E0BB1219C0AB128B
:1013800017C02D853E85620F731F0484F585E02DFF
:101390002F8138854D895E89898D9A8D0995DD0C5F
:1013A0006394842DD1CF1E821D821C821B8288CF24
:1013B0004B815C81640F751FAB85BC856A9FC00142
:1013C0006B9F900D7A9F900D112469817A81680F2F
:1013D000791F0684F785E02DEF80F88409851A854A
:1013E0009D014F855889898D9A8D0995D8CF570CC5
:1013F000C3948ACF6A960FB6F894DEBF0FBECDBFF6
:10140000DF91CF911F910F91FF90EF90DF90CF90E0
:10141000BF90AF909F908F907F906F905F904F9014
:101420003F902F9008958F929F92AF92CF92EF921C
:10143000FF920F931F93CF93DF93EC01262F898D9B
:101440009A8D009709F051C06A30D1F41D861C8630
:101450008D8948E0849F900111248E859F85820F9D
:10146000931F9F878E8781E090E0DF91CF911F913E
:101470000F91FF90EF90CF90AF909F908F90089535
:101480006D3089F3CC88AD888F898823C1F08C8535
:101490009D8536E0C39E800D911D11244885598598
:1014A0004817590764F44E855F851D861C8638E011
:1014B000A39EC0011124840F951F9F878E87EA8801
:1014C000FB88088919894E855F856C857D85CE01ED
:1014D0000E94EE072C898C859D8546E0249F800D17
:1014E000911D11249D878C87BECF6A3069F41D86BB
:1014F0001C86FC013896E4912D898E859F85E29F9C
:10150000800D911D1124ADCF6D3009F4ACCFFC01DD
:1015100034963491631708F4A6CF3296E491E61717
:1015200008F4A1CFFC01329685909490462F431B7E
:10153000342F47E0349F800C911C1124F401329623
:1015400034913196E4913323A9F1EE2399F1CC88BB
:10155000F4013596E491AD884F89442301F10E2EB4
:10156000000CFF0BE30FF11DCE9EA001CF9E500D8E
:1015700011246C857D85460F571F68857985641712
:1015800075076CF44E855F851D861C86FC013896B8
:10159000E491AE9E400D511D11245F874E87EA886D
:1015A000FB88088919894E855F856C857D85CE010C
:1015B0000E94EE07F4013496E4912C898C859D8578
:1015C000E29F800D911D11248DCF6F927F928F929B
:1015D0009F92AF92BF92CF92DF92EF92FF920F93C2
:1015E0001F93CF93DF93EC016B015A01390148013E
:1015F000E881F9810284F385E02D0995E881F9817C
:101600000288F389E02D87019301A501B601CE017F
:101610000995A501480D591D41505109E881F981ED
:101620000288F389E02D9301B601CE010995E88186
:10163000F9810088F189E02D9401A501B601CE0160
:101640000995C60CD71CB60161507109E881F98172
:101650000088F189E02D9401A501CE010995E8816A
:10166000F9810688F789E02DCE01DF91CF911F9196
:101670000F91FF90EF90DF90CF90BF90AF909F9031
:101680008F907F906F9009946F927F928F929F922C
:10169000AF92BF92CF92DF92EF92FF920F931F9380
:1016A000CF93DF935C01EB016A01490138018701A7
:1016B000DC01ED91FC916217730719F5641675064C
:1016C0002CF0962D872D3A01C92ED82E9601261979
:1016D00037092F5F3F4F048CF58DE02DA301BE012C
:1016E000C5010995DF91CF911F910F91FF90EF9068
:1016F000DF90CF90BF90AF909F908F907F906F9032
:1017000008954615570591F42617370724F0892DBB
:101710004B01C22FD82F9E01281939092F5F3F4F47
:10172000068CF78DE02DA601B401DACF0284F38593
:10173000E02D0995D501ED91FC910488F589E02D06
:1017400083019401A601BE01C5010995D501ED9162
:10175000FC910688F789E02DC501DF91CF911F919B
:101760000F91FF90EF90DF90CF90BF90AF909F9040
:101770008F907F906F900994EF92FF920F931F9339
:10178000DC011A960D911C911B9718962D913C9196
:101790001997ED91FC9100A0F1A1E02D7B0150E0A3
:1017A00040E070E060E009951F910F91FF90EF908D
:1017B00008954F925F926F927F928F929F92AF9215
:1017C000BF92CF92DF92EF92FF920F931F93CF932E
:1017D000DF936C012B015A0139014801DC01ED91C5
:1017E000FC910284F385E02D0995E201640C751CDF
:1017F000D601ED91FC91C615D7055CF40088F189FE
:10180000E02D87019401A501BE01C601099521962D
:10181000EFCF0688F789E02DC601DF91CF911F91A8
:101820000F91FF90EF90DF90CF90BF90AF909F907F
:101830008F907F906F905F904F9009948F929F92BE
:10184000AF92BF92CF92DF92EF92FF920F931F93CE
:10185000CF93DF93EC015B014A016901E881F981D3
:101860000284F385E02D099595012C0D3D1D215035
:101870003109E881F9810488F589E02D7801840136
:10188000A401B501CE010995E881F9810688F7899F
:10189000E02DCE01DF91CF911F910F91FF90EF903E
:1018A000DF90CF90BF90AF909F908F9009948F92D0
:1018B0009F92AF92BF92CF92DF92EF92FF920F93DF
:1018C0001F93CF93DF93EC015B014A01690178011B
:1018D000E881F9810284F385E02D0995C80CD91CB3
:1018E000860101501109E881F9810488F589E02D0C
:1018F0009501A401B501CE010995E881F981068819
:10190000F789E02DCE01DF91CF911F910F91FF90CC
:10191000EF90DF90CF90BF90AF909F908F90099401
:10192000EF92FF920F931F93DC01ED91FC9100A0C9
:10193000F1A1E02D09951F910F91FF90EF9008956F
:101940000F931F93DC01ED91FC91068CF78DE02D38
:1019500009951F910F9108950F931F93DC01ED914D
:10196000FC91048CF58DE02D09951F910F91089540
:10197000DC01ED91FC910084F185E02D09942F921A
:101980003F924F925F926F927F928F929F92AF920F
:10199000BF92CF92DF92EF92FF920F931F93CF935C
:1019A000DF9300D000D000D0CDB7DEB73C016A0194
:1019B0003E832D83FC82EB825801A41AB50AB7FE40
:1019C00003C0B194A194B1088D809E80861A970AB5
:1019D00097FE03C09194819491088A149B045CF053
:1019E000902F812F0D811E819D838E839C2D8D2DA7
:1019F0006B01692F782F0C151D055CF09D818E8180
:101A00007E836D83692F782F902F812F8601C92EB9
:101A1000D82E1601201A310A2B012D813E81421A3F
:101A2000530A57FE03C0519441945108710137FE87
:101A300003C03FEFE31AF30AF594E7948D819E818A
:101A4000861797075CF5A1E0B0E0BA83A983C016BA
:101A5000D1064CF1D301ED91FC910484F585E02D84
:101A60002B813C81A8016D817E818A149B041CF02E
:101A70004D815E81B801C3010995E418F508F7FEB0
:101A80000AC02D813E8189819A81280F391F3E83AA
:101A90002D83E20CF31C0F5F1F4FD9CF2FEF3FEFC9
:101AA0003A832983D4CF26960FB6F894DEBF0FBEB3
:101AB000CDBFDF91CF911F910F91FF90EF90DF90FD
:101AC000CF90BF90AF909F908F907F906F905F90DE
:101AD0004F903F902F90089508952091FB01260F7D
:101AE0003327331F21323105ECF420916E03FC01C2
:101AF00090E080E0243069F082E00895A091FB013D
:101B00002191AC0145525E4FA40FB52FB11D2C930E
:101B10000196861798F38091FB01680F6093FB0193
:101B200080E0089581E0089510926E0381E0809333
:101B30006D031092480361E082E10E94310461E08C
:101B400083E10E943104E9EBF0E080818E7F8083A5
:101B500080818D7F808388E48093B80085E48093C2
:101B6000BC000895CF93DF9391E09093DA0188232E
:101B7000B9F0C091B800D091BA008091BC008A7BC6
:101B80008093BC0060E082E10E94310460E083E168
:101B90000E9431040E94940DD093BA00C093B80003
:101BA000DF91CF9108958F929F92AF92BF92CF9283
:101BB000DF92EF92FF920F931F93CF93DF93D09119
:101BC0009703D13208F0D7C0182FC09196030E9416
:101BD000EC056B017C0180916E0381116BC082E08A
:101BE00080936E0310936D038FEF80936C031092BC
:101BF0006B03D0936A03A6E7B3E0EAE4F3E080E086
:101C0000D81391C01092490380914903CC0FC82B7F
:101C1000C093490380914803813009F088C0109235
:101C200048030E94EC056B017C018091490380937D
:101C3000BB008091700390917103A0917203B091E9
:101C40007303892B8A2B8B2BA1F00E94EC0500914A
:101C500070031091710320917203309173036C191A
:101C60007D098E099F09061717072807390708F409
:101C700042C08091BC0083FDD8CF85EC8093BC002E
:101C80000E94EC056B017C0180916E03823009F4A7
:101C900050C080916C038F3F09F46FC080916C033A
:101CA000803209F46CC080916C03803309F469C000
:101CB00084E026C08091700390917103A09172031B
:101CC000B0917303892B8A2B8B2B09F484CF0E944C
:101CD000EC058090700390907103A0907203B09017
:101CE00073036C197D098E099F0986169706A8064D
:101CF000B90608F070CF80916F030E94B20D85E0A5
:101D0000109275031092970310927403DF91CF9194
:101D10001F910F91FF90EF90DF90CF90BF90AF9009
:101D20009F908F9008959D9191938F5F69CF85EEDD
:101D3000A5CF8091700390917103A0917203B0912F
:101D40007303892B8A2B8B2B09F49ECF0E94EC0501
:101D5000009170031091710320917203309173030D
:101D60006C197D098E099F0906171707280739077F
:101D700008F08ACFC0CF81E0C3CF80E0C1CF82E03E
:101D8000BFCF83E0BDCFCF92DF92EF92FF920F9350
:101D90001F93CF93DF93DA01A00FB11FEC01EC8109
:101DA000FD81EA17FB0710F490E024C07A016B0173
:101DB00089819A81488151E050937403409396033E
:101DC0001092750310929703012BF1F489819A8187
:101DD000DC01ED91FC910280F381E02DA701B601B9
:101DE0000995E816F90601F781E00E94D30D91E00C
:101DF0008111DACF892FDF91CF911F910F91FF9041
:101E0000EF90DF90CF90089521153105F9F2DC01B4
:101E1000ED91FC910280F381E02D41E050E0B901A9
:101E20000995019709F6D2CF2F923F924F925F9278
:101E30006F927F928F929F92AF92BF92CF92DF92DA
:101E4000EF92FF920F931F93CF93DF93CDB7DEB73F
:101E50002A970FB6F894DEBF0FBECDBF7C0180E499
:101E60008D83D70116962D913C91C901079697FD58
:101E7000079673E0959587957A95E1F78987F7013D
:101E800044815581242F83A594A597FD079663E08F
:101E9000959587956A95E1F7382ED70199964C90DC
:101EA000241508F4442EF70165A576A577FD60E0BA
:101EB000DA01BB27B887AF83842C912C5401489F4B
:101EC000A00CB11C11242F5F260F2A87B9853B1661
:101ED00008F097C0F701C7A0D0A4CA0CDB1C84810E
:101EE0005A84581A5418058CF68DE02D90EB930DFA
:101EF000D701DA968C919401280F311D44E0359575
:101F000027954A95E1F7205F840D8F70309709F48B
:101F100056C064807580B1E06B1A71081A8219820C
:101F20009A832B838C83F701678D70A181A192A185
:101F30006933F0E97F07FDE08F07910510F40E94F7
:101F4000730610E000E030E020E044E050E0BE0125
:101F50006F5F7F4FD7015D968D919C910E94C30E5C
:101F60006E825520B1F02E80521408F4252C622C7C
:101F7000712C01E010E09E012B5F3F4FA301B601E1
:101F8000F701858D968D0E94C30EC60CD71C521882
:101F9000E8CFD70193966D917D918D919C91969705
:101FA0006933B0E97B07BDE08B07910510F40E940F
:101FB00073063394EF81F885AE0EBF1E87CF9983E9
:101FC0002A838B8360E0F70181A90E94310443E0FA
:101FD00050E0BE016F5F7F4FD7015B968D919C9162
:101FE0000E94980561E0F70181A90E943104452D06
:101FF00050E0B601D7015B968D919C910E949805A7
:10200000D8CF80E094E0D7019A969C938E939997CD
:102010009C969C938E939B978FEF9FEF9E969C939D
:102020008E939D97D0969C938E939F972A960FB6EA
:10203000F894DEBF0FBECDBFDF91CF911F910F91FE
:10204000FF90EF90DF90CF90BF90AF909F908F90D8
:102050007F906F905F904F903F902F9008950F93D7
:102060001F93CF93DF9300D01F92CDB7DEB78C01C3
:102070006B83FC01858D968D0097B1F01A821982D1
:102080006A8310E000E030E020E042E050E0BE0172
:102090006F5F7F4F0E94C30E0F900F900F90DF91E4
:1020A000CF911F910F91089560E081A90E943104A2
:1020B00041E050E0BE016D5F7F4FF801838D948D4C
:1020C0000E949805E9CF611103C066EA0C942F10B5
:1020D00067EAFCCFCF93DF93EC018B818823A1F0DB
:1020E000888191E090937403809396031092750316
:1020F0001092970381E00E94D30D91E0811190E04E
:10210000892FDF91CF91089510922402109223021B
:1021100010927503109297030E94940D83E496E049
:10212000909322028093210284E496E0909320020F
:1021300080931F0281E08B83CE010E946A10982F4A
:102140008111CECFDDCFE091240280912302E817E8
:1021500030F4F0E0E654FE4F808190E008958FEF78
:102160009FEF089590912402809123022FEF3FEF7B
:10217000981748F4E92FF0E0E654FE4F208130E054
:102180009F5F90932402C90108958091230290914A
:102190002402891B990B0895CF92DF92EF92FF9250
:1021A0000F931F93CF93DF937C01CB018A01209182
:1021B0007403222389F0EB016B01C40ED51ECC15EC
:1021C000DD0569F06991D701ED91FC910190F081F5
:1021D000E02DC7010995F3CF642F0E946D0DC80152
:1021E000DF91CF911F910F91FF90EF90DF90CF90F3
:1021F0000895CF93DF931F92CDB7DEB76983209107
:1022000074032223F9F020919703203258F021E043
:1022100030E0FC013383228390E080E00F90DF9177
:10222000CF91089580917503E82FF0E0EA58FC4FB4
:10223000998190838F5F809375038093970381E0EA
:1022400090E0ECCF61E0CE0101960E946D0DF7CFDA
:1022500090E080E008958F929F92AF92BF920F938B
:102260001F93CF93DF93CDB7DEB7A1970FB6F89446
:10227000DEBF0FBECDBF19A2423008F44AE08E0186
:102280000F5D1F4F842E912CB12CA12CA501940120
:102290000E94CE1AE62FB901CA01EA3044F5E05D8A
:1022A000D801EE938D01232B242B252B79F790E079
:1022B00080E0109769F0FD0101900020E9F7319767
:1022C000AF014A1B5B0BBD0184EA93E00E94460606
:1022D000A1960FB6F894DEBF0FBECDBFDF91CF91B0
:1022E0001F910F91BF90AF909F908F900895E95CE0
:1022F000D7CFFC0101900020E9F73197AF01481BCF
:10230000590BBC0184EA93E00C9446060E942A1CF7
:102310000F931F93CF93DF93EC018EE391E09983AA
:1023200088838FA198A5009721F00E94A11B18A671
:102330001FA20B8D1C8D0115110551F0F801828132
:102340009381009711F00E94A11BC8010E94A11B5C
:102350008D8D9E8D009731F0DF91CF911F910F9160
:102360000C94A11BDF91CF911F910F910895CF93F2
:10237000DF93EC010E948811CE01DF91CF910C9484
:10238000A11BCF93DF93EC012FA98C819D81289F06
:10239000B001299F700D11242E813F81C90107963C
:1023A00097FD079623E0959587952A95E1F7689F15
:1023B000A001699F500D789F500D112470E060E0DE
:1023C0008FA198A50E942F1C1AA619A61CA61BA6B1
:1023D0008C819D8101979EA78DA78E819F810197FA
:1023E00098AB8FA7DF91CF91089585ED8093BC00C6
:1023F0008091700390917103A0917203B091730367
:102400000796A11DB11D23E0B695A79597958795D1
:102410002A95D1F72091BC0024FD03C010926E03D1
:10242000089540917003509171036091720370910F
:102430007303452B462B472B69F30097A105B10584
:1024400041F02AE22A95F1F700C00197A109B109EC
:10245000E1CF80916F030C94B20D8F929F92AF9257
:10246000BF92CF92DF92EF92FF928EE0C82ED12CD6
:10247000E12CF12C96E0892E912CA12CB12C0E94FC
:10248000441AA70196010E949C1A6F5F7F4F8F4FDD
:102490009F4F609336030E94441AA50194010E9445
:1024A0009C1ADC01CB010196A11DB11D282F809340
:1024B000370330913603E6E3F2E040910301509197
:1024C000040190E080E08417950759F0619163134F
:1024D00006C0DC01AA54BD4F6C91261781F201960B
:1024E000F2CFFF90EF90DF90CF90BF90AF909F9092
:1024F0008F90089523E030E030930401209303018E
:102500001092390310923803A6E3B2E085E08C9371
:10251000E6EBF2E084E0808311968C93119781833F
:1025200093E012969C9382833093020120930101E1
:1025300010923E030C942D121F920F920FB60F9221
:1025400011242F933F938F939F93AF93BF938091C9
:10255000400390914103A0914203B0914303309115
:102560003F0323E0230F2D3758F50196A11DB11D20
:1025700020933F038093400390934103A093420331
:10258000B09343038091440390914503A091460387
:10259000B09147030196A11DB11D80934403909310
:1025A0004503A0934603B0934703BF91AF919F911A
:1025B0008F913F912F910F900FBE0F901F90189504
:1025C00026E8230F0296A11DB11DD2CF1F920F92B4
:1025D0000FB60F9211242F933F934F935F936F93F6
:1025E0007F938F939F93AF93BF93EF93FF938091CC
:1025F0002A0290912B02A0912C02B0912D02892BDE
:102600008A2B8B2BD1F190912502E0912602F0913B
:10261000270280818927808380912A0290912B0252
:10262000A0912C02B0912D02181619061A061B064D
:102630009CF480912A0290912B02A0912C02B091DF
:102640002D020197A109B10980932A0290932B02D0
:10265000A0932C02B0932D02FF91EF91BF91AF9107
:102660009F918F917F916F915F914F913F912F91AA
:102670000F900FBE0F901F90189580910001E2E51A
:10268000F7E0E4919FEF90930001E13051F030F0DA
:10269000E23069F060E00E943104DECF10926E00FB
:1026A000F9CF90916F009D7F90936F00F3CF909141
:1026B00070009D7F9093700091E09093B000909196
:1026C000B100987F94609093B1001092B300E2CF74
:1026D0001F920F920FB60F9211242F933F934F9397
:1026E0005F936F937F938F939F93AF93BF93EF937A
:1026F000FF938091B900887F803609F44AC0F0F5D5
:10270000883209F4A7C018F5803109F49BC0B8F4E9
:10271000882309F4F9C0883009F494C0FF91EF913F
:10272000BF91AF919F918F917F916F915F914F91E9
:102730003F912F910F900FBE0F901F9018958831E9
:1027400009F488C0803251F780936C0314C0803440
:1027500009F49DC040F48033B9F38833F9F68093CF
:102760006C0385ECB0C0803509F485C0883509F468
:1027700096C0883499F60E94F511D0CF883909F4B3
:102780008CC038F5883729F050F4883611F080373E
:1027900029F683E080936E0310921D0257C088389B
:1027A00009F47BC0803919F0803809F0B7CF8091E7
:1027B0001D02803208F071C0E0911D0281E08E0F91
:1027C00080931D028091BB00F0E0E350FE4F8083B8
:1027D0003DC0803B39F0E0F4803A09F479C0883A92
:1027E00009F09CCF84E080936E031092FC0110925C
:1027F000FB01E0912102F091220209958091FB01F9
:1028000081110FC081E08093FB011092DB0109C0B0
:10281000803C09F4A6CF883C09F4A3CF883B09F09B
:102820007DCFE091FC0181E08E0F8093FC01F0E010
:10283000E552FE4F80818093BB009091FC01809116
:10284000FB0129C0809149038093BB0085EC8093F4
:10285000BC0064CF90916B0380916A03981758F580
:10286000E0916B0381E08E0F80936B03F0E0E65BF9
:10287000FC4F8081E9CFE0916B0381E08E0F809364
:102880006B038091BB00F0E0E65BFC4F808390918E
:102890006B0380916A039817C8F285E8D8CFE0915E
:1028A0006B0381E08E0F80936B038091BB00F0E09F
:1028B000E65BFC4F808380916D0381115CCF81E0EA
:1028C0008093480384EA8093BC0010926E0326CF65
:1028D00085EC8093BC0010926E0380911D028032C3
:1028E00030F4E0911D02F0E0E350FE4F1082609161
:1028F0001D0270E0E0911F02F09120028DEF91E047
:10290000099510921D020ACF10926C0334CFA8E9EA
:10291000B3E013961C921E92129748EE53E060E0CB
:1029200070E014964D935D936D937C9317978CE2B2
:1029300091E011969C938E93E4EAF3E01382128265
:1029400020E830E03583248380E490E09783868319
:102950003187208793878287168A15861486178683
:10296000168621E0258B248B8FEF9FEF938B828B34
:10297000918B808B278B108E128E118E148E138E5E
:10298000168E158E40E85AE166E070E0478F50A33E
:1029900061A372A340EA56E861E070E043A354A348
:1029A00065A376A310A617A292AB81AB94AB83ABC1
:1029B00096AB85AB27ABB1AFA0AF12AE8CE691E082
:1029C000918380830895CF93DF931F92CDB7DEB7B5
:1029D000789484B5826084BD84B5816084BD85B5FA
:1029E000826085BD85B5816085BD80916E00816006
:1029F00080936E00109281008091810082608093AC
:102A000081008091810081608093810080918000AD
:102A10008160809380008091B10084608093B100D8
:102A20008091B00081608093B00080917A008460D2
:102A300080937A0080917A00826080937A008091FE
:102A40007A00816080937A0080917A008068809318
:102A50007A001092C10062E084E00E945F0461E0AD
:102A600083E00E945F048091CB039091CC03892B7B
:102A700009F48DC08091D9039091DA0397FD24C0A9
:102A800061E00E945F0461E08091D9030E943104FB
:102A90006AE070E080E090E00E94110660E08091C2
:102AA000D9030E9431046AE070E080E090E00E9467
:102AB000110661E08091D9030E9431046AE070E060
:102AC00080E090E00E941106A090DC03B090DD034E
:102AD000A114B10409F434C186E090E00E94051B02
:102AE0006C018CE3D6018C931296BC92AE92119736
:102AF00013961C92139780E290E015969C938E9308
:102B00001497D092C203C092C103C114D10409F436
:102B100067C0109224021092230210927503109243
:102B200097030E94940D83E496E090932202809391
:102B3000210284E496E09093200280931F0281E0BA
:102B4000F6018383C6010E946A10882309F448C0F5
:102B500084EA93E00E94C1111092CE031092CD033B
:102B60001092D0031092CF038091A8039091A903F3
:102B700001979093D2038093D1038091AA039091FF
:102B8000AB0301979093D4038093D30329C0209182
:102B9000DB038091A8039091A903289FA001299F9E
:102BA000500D11242091AA033091AB03C90107965F
:102BB00097FD079633E0959587953A95E1F79C0147
:102BC000429FC001439F900D529F900D11240E947F
:102BD000051B9093CC038093CB03892B09F04ACF3C
:102BE00082E08093DE038091AA039091AB035C01A5
:102BF000F0E2AF1AB108B7FE04C05C012FE1A21ADF
:102C0000B108B594A794C090A803D090A90333E766
:102C1000C31AD108D7FE03C08FEFC81AD80AD594BB
:102C2000C794712C612C10E0912C812CC401877009
:102C30009927110F892B59F4F40103E0F595E795D5
:102C40000A95E1F7E60DF71DE859FA4F149117FFC1
:102C50000AC021E030E0A501B601680D791D84EAC3
:102C600093E00E94B80C9FEF891A990AA3E78A168D
:102C70009104E1F6BFEFAB1ABB0AEFE06E0E711CD8
:102C8000F0EE6F16F1E07F0679F68091C103909126
:102C9000C203009709F4D5C0198201E010E09E013B
:102CA0002F5F3F4F49E150E06FE071E00E94C30E9B
:102CB000882359F064E670E080E090E00E941106FD
:102CC0006FEA84EA93E00E942F1081E090E09093F5
:102CD000B7038093B6039093B5038093B40380E069
:102CE0000E949B04BC01990F880B990B611571051B
:102CF0008105910511F00E94931A0E947A12B2E0A8
:102D00002B2E312C10E3412E512C612C712CE3E938
:102D1000F7E08491EFE7F7E01491EBE6F7E0D49069
:102D2000D1109FC080913E03882309F4A9C068ECAC
:102D300070E080E090E00E9411060E947A12A0C02C
:102D4000C090BF03D090C003C114D10409F448CF90
:102D5000D6011B968C918F3F41F061E00E945F0489
:102D600061E0F60183850E943104D6018D919C912A
:102D7000892B09F43CC01FB7F89480911E02811181
:102D800027C0E1E7F7E08491E5E8F7E09491E82FC8
:102D9000F0E0EE0FFF1FED5AF84FA591B491EC91C2
:102DA000E92321F461E08AE00E94310461E08AE0D5
:102DB0000E945F048CB580618CBD8CB580648CBD35
:102DC00061E08DE00E945F0461E08BE00E945F049F
:102DD00080911E028F5F80931E021FBF81E0F6016B
:102DE000838F61E08091D5030E945F04B1CE61E0E2
:102DF000F60184850E945F04D6011A968C911A9779
:102E00008B7FD9F460E01C968C910E943104D6012E
:102E10001D968C918F3F41F061E00E945F0461E05C
:102E2000F60185850E943104D6011E968C918F3F54
:102E3000A9F260E00E945F04D1CF61E0F6018485D1
:102E4000E4CF60E08091D5030E94310449E150E075
:102E50006FE071E08091BF039091C0030E949805DC
:102E600027CF81110E940804ED2DF0E0EE0FFF1F27
:102E7000E85BF84FA591B4918C91182309F452CFD7
:102E80008EE00E949B046C018FE00E949B04F8EC92
:102E9000CF16D1040CF066C02091010130910201DF
:102EA0002330310509F48AC23092020120920101D7
:102EB00080913E038111BBC02FB7F89480914003ED
:102EC00090914103A0914203B09143032FBF4091E1
:102ED0003A0350913B0360913C0370913D03841B86
:102EE000950BA60BB70B853B9105A105B10508F421
:102EF0009EC02FB7F8948091400390914103A09118
:102F00004203B09143032FBF80933A0390933B0356
:102F1000A0933C03B0933D03809103019091040181
:102F20009C0121503109FC01EA5CFD4F8C010A54DF
:102F30001D4FBF016801319701501109AF01465380
:102F400052401416150694F5AF0141505109DA01AB
:102F50004C914083A80141505109DA014C91D801AC
:102F60004C93E9CF21E2C21623E0D2067CF02091F7
:102F70000101309102012230310509F41FC283E0C2
:102F800090E0909302018093010192CF883C9105DB
:102F90000CF018C28091010190910201019709F48F
:102FA00087CF109202011092010182CFE0910101BE
:102FB000F09102014091B6024150309731F0E1307A
:102FC000F10529F54091B6024F5F4093B602B090EB
:102FD00036024FEF4B0D4E3038F51091B6024FEFE1
:102FE000410F463008F5E7E3F2E041E050E04817D2
:102FF000590708F0B1C1A191BA1206C0DA01AA546A
:10300000BD4FAC911A1781F04F5F5F4FF0CF4091E9
:103010003602E230F10521F4415040933602D7CF19
:103020003397A9F64F5FF9CF81E080933E0384EA9E
:1030300093E00E94C11180913E03882309F404C1EA
:1030400082E08093B8038093B9038AE090E0909384
:10305000B1038093B003A4E1B0E0B093B303A093B5
:10306000B2038AE991E00E94791181E08093B8036C
:103070008093B9038CE190E09093B1038093B00307
:1030800080E390E09093B3038093B20384EA91E0ED
:103090000E94791184EA93E00E94140F80E090E08E
:1030A000892B09F434CE0E94000031CE8F3F09F005
:1030B00082C183E080930001E2E5F7E014911F3FB5
:1030C00009F479C1113009F436C050F0123009F416
:1030D00051C017FD70C161E083E00E945F0420C011
:1030E00014BC15BC84B5826084BD85B5816085BD86
:1030F000EAE6F7E08491E82FF0E0EE0FFF1FE35AD5
:10310000F84F85919491EEE7F7E08491809329023E
:1031100010E061E083E00E945F04112309F44DC0D8
:10312000123009F05EC08091B100887F8460809386
:10313000B1008FEC79C010928000109281008091D4
:1031400081008860809381008091810081608093FC
:103150008100EAE6F7E08491E82FF0E0EE0FFF1F30
:10316000E35AF84F85919491EEE7F7E084918093CC
:103170002802CFCF1092B0001092B1008091B00021
:1031800082608093B0008091B10081608093B10033
:10319000EAE6F7E08491E82FF0E0EE0FFF1FE35A34
:1031A000F84F859194919093270280932602EEE741
:1031B000F7E0849180932502ACCF85B5887F83604A
:1031C00085BD8FEC87BD40923202509233026092EF
:1031D00034027092350280916E00826080936E009E
:1031E000EAC01130D1F480918100887F81608093A2
:1031F000810024E134E330938900209388004092D9
:103200002E0250922F026092300270923102809111
:103210006F00826080936F00CEC0123021F01111D8
:10322000CAC084E1CFCF84E18093B30040922A02E8
:1032300050922B0260922C0270922D0280917000AD
:10324000826080937000B7C0EE24E394F12C00E418
:1032500010E020E830E050E040E070E060E084EA18
:1032600093E00E94E50A81E08093B8038093B9035C
:103270003092B1032092B0033092B3032092B20394
:1032800081EB91E00E94791180903803909039038E
:10329000092C000CAA08BB084AE0C501B401B7FE1E
:1032A0000DC06DE284EA93E00E94130A6627772737
:1032B000CB01681979098A099B094AE00E942B1100
:1032C00040913703B8E04B02A0011124609136030E
:1032D000E8E06E02B0011124EE24E394F12C08E042
:1032E00010E028E030E084EA93E00E94D90B26EB5E
:1032F000822E22E0922E36E3A32E32E0B32ED12C82
:10330000C12C8091030190910401C816D90608F0E0
:10331000C1CED4014D914D01F50161915F01F8E0FD
:103320006F02B001112428E04202A0011124EE2412
:10333000E394F12C08E010E028E030E084EA93E028
:10334000C114D10431F40E94D90B3FEFC31AD30A40
:10335000D8CF0E94E50AF9CF40913603B41267CE68
:1033600040913703141363CE8038910589F0F90139
:10337000EA5CFD4F4081FB0140832A543D4FD90157
:103380002C91F60120830196909304018093030110
:10339000809138039091390301969093390380937B
:1033A000380380910001833009F080CEE2E5F7E038
:1033B000149117FFAECE0E942D1239CE883C910594
:1033C0000CF4EFCD813293400CF472CD8091010169
:1033D00090910201892B09F46BCDE1E0F0E0F093CC
:1033E0000201E093010164CD84EA93E00C9488111A
:1033F0008F929F92AF92BF92CF92DF92EF92FF9205
:10340000CF93DF93EC01688179818A819B8161157B
:1034100071058105910521F464E279ED8BE597E072
:103420002DE133EF41E050E00E949C1A49015A011E
:103430009B01AC01A7EAB1E40E94BB1A6B017C01BD
:10344000ACEEB4EFA50194010E94C91AC60ED71EB6
:10345000E81EF91EF7FE06C081E0C81AD108E1088F
:1034600080E8F80AC882D982EA82FB82C701B601E5
:103470009F77DF91CF91FF90EF90DF90CF90BF903B
:10348000AF909F908F9008958F929F92AF92BF922E
:10349000CF92DF92EF92FF92609105017091060149
:1034A00080910701909108016115710581059105D1
:1034B00021F464E279ED8BE597E02DE133EF41E013
:1034C00050E00E949C1A49015A019B01AC01A7EAF5
:1034D000B1E40E94BB1A6B017C01ACEEB4EFA50114
:1034E00094010E94C91AC60ED71EE81EF91EF7FEE7
:1034F00006C081E0C81AD108E10880E8F80AC09245
:103500000501D0920601E0920701F0920801C7017F
:10351000B6019F77FF90EF90DF90CF90BF90AF9074
:103520009F908F900895609305017093060180939A
:103530000701909308010895052E97FB1EF400944F
:103540000E94B31A57FD07D00E94CE1A07FC03D081
:103550004EF40C94B31A50954095309521953F4FF9
:103560004F4F5F4F089590958095709561957F4F6F
:103570008F4F9F4F08950E94F01AA59F900DB49F02
:10358000900DA49F800D911D11240895B7FF0C94F8
:10359000BB1A0E94BB1A821B930B0895A1E21A2E3C
:1035A000AA1BBB1BFD010DC0AA1FBB1FEE1FFF1FE7
:1035B000A217B307E407F50720F0A21BB30BE40B37
:1035C000F50B661F771F881F991F1A9469F760957E
:1035D0007095809590959B01AC01BD01CF01089538
:1035E000A29FB001B39FC001A39F700D811D112444
:1035F000911DB29F700D811D1124911D0895EE0F34
:10360000FF1F0590F491E02D09940F931F93CF9322
:10361000DF938230910510F482E090E0E091E103C5
:10362000F091E20330E020E0B0E0A0E0309799F4C0
:103630002115310509F44AC0281B390B2430310506
:10364000D8F58A819B816115710589F1FB0193830E
:103650008283FE0111C0408151810281138148178C
:103660005907E0F04817590799F4109761F012963E
:103670000C93129713961C933296CF01DF91CF9142
:103680001F910F9108950093E1031093E203F4CF8B
:103690002115310551F04217530738F0A901DB011C
:1036A0009A01BD01DF01F801C1CFEF01F9CF90937D
:1036B000E2038093E103CDCFFE01E20FF31F81937C
:1036C00091932250310939832883D7CF2091DF038A
:1036D0003091E003232B41F420910B0130910C0138
:1036E0003093E0032093DF032091090130910A0118
:1036F0002115310541F42DB73EB740910D01509190
:103700000E01241B350BE091DF03F091E003E2177B
:10371000F307A0F42E1B3F0B2817390778F0AC01F4
:103720004E5F5F4F2417350748F04E0F5F1F5093D1
:10373000E0034093DF03819391939FCFF0E0E0E0BB
:103740009CCFCF93DF930097E9F0FC01329713826F
:103750001282A091E103B091E203ED0130E020E09C
:103760001097A1F420813181820F931F2091DF03F4
:103770003091E0032817390709F061C0F093E003A6
:10378000E093DF03DF91CF910895EA01CE17DF07C1
:10379000E8F54A815B819E0141155105B1F7E901C8
:1037A000FB83EA8349915991C40FD51FEC17FD079C
:1037B00061F4808191810296840F951FE9019983BC
:1037C0008883828193819B838A83F0E0E0E0129674
:1037D0008D919C9113970097B9F52D913C9111977C
:1037E000CD010296820F931F2091DF033091E003F9
:1037F0002817390739F6309751F51092E2031092E5
:10380000E103B093E003A093DF03BCCFD383C28373
:1038100040815181840F951FC817D90761F44E5F0D
:103820005F4F88819981480F591F518340838A8156
:103830009B81938382832115310509F0B0CFF093EA
:10384000E203E093E1039ECFFD01DC01C0CF1382D0
:103850001282D7CF81E090E0F8940C94361CDC0102
:1038600001C06D9341505040E0F7089513E0C3ED5F
:10387000D3E004C0FE010E94FF1A2196C43DD10787
:10388000C9F7F894FFCFFF03000300010000000018
:1038900000E3038000AED580A83FD30040AD8BA1EC
:1038A000C8DA1281FFD91FDB4033A62010A4000024
:1038B0000000F910CC1028114506C510B210A31055
:1038C00000000000130A460628116C0DC9064506C3
:1038D000B80C900CAC0CA00CBF0C4506D9076310BB
:1038E000570C1E0CD90BBC0B440BE50A86110000CB
:1038F0000000130A460628116C0DC9064506B80CCF
:10390000900CAC0CA00CBF0C4506D9076310570CEB
:103910001E0CD90BBC0B440BE50A140F8811B71110
:1039200047414D45204F56455200507265737320F4
:10393000427574746F6E0053636F72653A200000B5
:107E0000112484B714BE81FFF0D085E080938100F7
:107E100082E08093C00088E18093C10086E0809377
:107E2000C20080E18093C4008EE0C9D0259A86E02C
:107E300020E33CEF91E0309385002093840096BBD3
:107E4000B09BFECF1D9AA8958150A9F7CC24DD24C4
:107E500088248394B5E0AB2EA1E19A2EF3E0BF2EE7
:107E6000A2D0813461F49FD0082FAFD0023811F036
:107E7000013811F484E001C083E08DD089C08234E0
:107E800011F484E103C0853419F485E0A6D080C0E4
:107E9000853579F488D0E82EFF2485D0082F10E0AE
:107EA000102F00270E291F29000F111F8ED06801E7
:107EB0006FC0863521F484E090D080E0DECF843638
:107EC00009F040C070D06FD0082F6DD080E0C81688
:107ED00080E7D80618F4F601B7BEE895C0E0D1E017
:107EE00062D089930C17E1F7F0E0CF16F0E7DF06D8
:107EF00018F0F601B7BEE89568D007B600FCFDCFD4
:107F0000A601A0E0B1E02C9130E011968C91119780
:107F100090E0982F8827822B932B1296FA010C0160
:107F200087BEE89511244E5F5F4FF1E0A038BF0790
:107F300051F7F601A7BEE89507B600FCFDCF97BE46
:107F4000E89526C08437B1F42ED02DD0F82E2BD052
:107F50003CD0F601EF2C8F010F5F1F4F84911BD097
:107F6000EA94F801C1F70894C11CD11CFA94CF0C13
:107F7000D11C0EC0853739F428D08EE10CD085E9AC
:107F80000AD08FE07ACF813511F488E018D01DD067
:107F900080E101D065CF982F8091C00085FFFCCF94
:107FA0009093C60008958091C00087FFFCCF809118
:107FB000C00084FD01C0A8958091C6000895E0E648
:107FC000F0E098E1908380830895EDDF803219F02E
:107FD00088E0F5DFFFCF84E1DECF1F93182FE3DFCA
:107FE0001150E9F7F2DF1F91089580E0E8DFEE27F6
:047FF000FF270994CA
:027FFE00040479
:00000001FF
